:020000041004E6
:1000000000600020A92404103D4104104341041065
:10001000AA5555AA45554C420000000000000000BA
:100020000000000000000000000000004941041032
:100030000000000000000000972204104F4104104F
:10004000992204109B220410000000000000000010
:10005000714104109D22041057410410A92204107C
:100060000000000000000000000000000000000090
:1000700000000000AB220410AD220410AF220410D7
:10008000000000009F220410A1220410A3220410EB
:10009000A5220410A7220410952204106141041027
:1000A0000000000000000000000000000000000050
:1000B0000000000000000000000000000000000040
:1000C000EFF31482EFF30981002080F31488BFF36B
:1000D0006F8FF0B543464C4655465E466746F8B4CA
:1000E000164CEFF30883236006B4154C2068154CBA
:1000F0002060154C2068154C2060154C2068154C6C
:100100002060154C276800202060BFF34F8F30BF60
:1001100027600A4C246884F3088882B003BCF8BCCA
:100120009846A146AA46B346BC46F0BC04BC80F340
:10013000098881F31488BFF36F8F104708000020EF
:1001400004ED00E07C03002024ED00E070030020BB
:1001500000E200E080030020080020400023C25C91
:100160000133002AFBD1581E7047000002B47146CB
:1001700049084900095C49008E4402BC7047C046EA
:10018000002243088B4274D303098B425FD3030AD6
:100190008B4244D3030B8B4228D3030C8B420DD3E9
:1001A000FF22090212BA030C8B4202D31212090277
:1001B00065D0030B8B4219D300E0090AC30B8B42B5
:1001C00001D3CB03C01A5241830B8B4201D38B0363
:1001D000C01A5241430B8B4201D34B03C01A524108
:1001E000030B8B4201D30B03C01A5241C30A8B424B
:1001F00001D3CB02C01A5241830A8B4201D38B0236
:10020000C01A5241430A8B4201D34B02C01A5241D9
:10021000030A8B4201D30B02C01A5241CDD2C3094B
:100220008B4201D3CB01C01A524183098B4201D3C7
:100230008B01C01A524143098B4201D34B01C01AB2
:10024000524103098B4201D30B01C01A5241C3082A
:100250008B4201D3CB00C01A524183088B4201D399
:100260008B00C01A524143088B4201D34B00C01A85
:100270005241411A00D20146524110467047FFE7F1
:1002800001B5002000F0F0F802BDC0460029F7D00B
:1002900076E7704703460B437FD4002243088B4226
:1002A00074D303098B425FD3030A8B4244D3030BFD
:1002B0008B4228D3030C8B420DD3FF22090212BAC2
:1002C000030C8B4202D31212090265D0030B8B423E
:1002D00019D300E0090AC30B8B4201D3CB03C01A28
:1002E0005241830B8B4201D38B03C01A5241430B03
:1002F0008B4201D34B03C01A5241030B8B4201D3F3
:100300000B03C01A5241C30A8B4201D3CB02C01A5D
:100310005241830A8B4201D38B02C01A5241430AD5
:100320008B4201D34B02C01A5241030A8B4201D3C4
:100330000B02C01A5241CDD2C3098B4201D3CB016B
:10034000C01A524183098B4201D38B01C01A52411A
:1003500043098B4201D34B01C01A524103098B421E
:1003600001D30B01C01A5241C3088B4201D3CB0009
:10037000C01A524183088B4201D38B00C01A5241EC
:1003800043088B4201D34B00C01A5241411A00D29C
:1003900001465241104670475DE0CA0F00D0494205
:1003A000031000D34042534000229C4603098B4275
:1003B0002DD3030A8B4212D3FC22890112BA030AFD
:1003C0008B420CD3890192118B4208D3890192117F
:1003D0008B4204D389013AD0921100E08909C30904
:1003E0008B4201D3CB01C01A524183098B4201D306
:1003F0008B01C01A524143098B4201D34B01C01AF1
:10040000524103098B4201D30B01C01A5241C30868
:100410008B4201D3CB00C01A524183088B4201D3D7
:100420008B00C01A5241D9D243088B4201D34B00F2
:10043000C01A5241411A00D20146634652415B1034
:10044000104601D34042002B00D549427047634615
:100450005B1000D3404201B5002000F005F802BD5A
:100460000029F8D016E770477047C0468446081C3C
:100470006146FFE71FB500F0F5F9002801D400211F
:10048000C8421FBD10B500F087F94042013010BDD1
:1004900010B500F0E7F9002801DB002010BD0120B5
:1004A00010BDC04610B500F0DDF9002801DD0020C8
:1004B00010BD012010BDC04610B500F093F9002812
:1004C00001DC002010BD012010BDC04610B500F0B9
:1004D00089F9002801DA002010BD012010BDC046B6
:1004E000002B11D1002A0FD1002900D1002802D001
:1004F0000021C943081C07B4024802A14018029019
:1005000003BDC04665FFFFFF03B4684601B502980E
:1005100000F048F8019B9E4602B00CBC7047C046F4
:10052000F0B5CE46474615042D0C2E0080B50704C5
:10053000140C3F0C9946030C7E435D4367436343B1
:100540007F19340CE4199C46A54203D980235B0231
:100550009846C4444B46514343433604360C250C5D
:1005600024046544A4195918491920000CBC90466C
:100570009946F0BD9E2110B5C905041CFFF7A6FFE2
:10058000002803D1201C00F04BFB10BD9E21201C35
:10059000C90500F0A9F900F043FB80231B069C4627
:1005A0006044F2E7F0B557464E464546DE46E0B5B4
:1005B000040083B00D00924699468B422FD82CD070
:1005C0004946504600F06AFF29000600200000F06E
:1005D00065FF331A9846203B9B4600D574E053468E
:1005E0005A4693401F005346424693401E00AF4276
:1005F00029D826D05B46A41BBD41002B00DA79E048
:10060000002200230092019301235A469340019354
:10061000012342469340009319E08242D0D9002240
:100620000023009201930C9B002B01D01C605D60A5
:100630000098019903B03CBC90469946A246AB464F
:10064000F0BDA342D6D90022002300920193434675
:10065000002BE8D0FB0772081A4346467B080EE0E1
:10066000AB4201D1A2420CD8A41A9D410120241909
:100670006D410021013E24184D41002E06D0AB42B1
:10068000EED9013E24196D41002EF8D15B46009849
:10069000019900196941002B22DB2B005A46D340F7
:1006A0002A004446E2401C005B461500002B2CDB70
:1006B00026009E40330026004746BE403200801A86
:1006C000994100900191AEE7424620239B1A524681
:1006D000DA40414613004A468A4017001F4382E72A
:1006E000424620239B1A2A0046469A402300F340A4
:1006F0001343D5E74246202300219B1A0022009194
:1007000001920122DA40019282E74246202326002C
:100710009B1ADE402F00B446974066463B003343A9
:10072000C9E7C046437802781B021A438378C07831
:100730001B041343000618437047C046030A4B705E
:10074000030C8B70030E0870CB70704703005A784F
:100750000078120202439878197900040243D8788D
:10076000000610435A7912020A43997909040A4390
:10077000D979090611437047030A5370030C93702B
:10078000030ED3700B0A53710B0C93710B0E107088
:100790001171D3717047C04670B5420045024E02D8
:1007A0004C00C30F6D0A120E760A240EC90F0120E9
:1007B000FF2A06D0FF2C03D0A24201D1B54206D0B9
:1007C00070BD002DFCD1FF2CFAD1002EF8D18B4248
:1007D00006D00120002AF3D12800451EA841EFE7EA
:1007E0000020EDE7F0B5420045024C02C30F48007F
:1007F0006D0A120E640A000EC90FFF2A1ED0FF28D0
:1008000021D0002A0AD16E426E41F6B200280FD1E3
:10081000002C0DD10020002D09D005E0002801D1C9
:10082000002C01D08B4211D0012158420843F0BD69
:10083000002EF7D0012001390843F8E7002DDED063
:1008400002204042F3E7002CDBD0F9E78242EBDCE8
:1008500004DBA542E8D80020A542E8D20121581EB9
:100860000843E4E7F0B542004D024C004602760A28
:10087000120EC30F6D0A240EC90FFF2A16D0FF2CCB
:1008800018D0002A0AD170427041C0B2002C15D095
:10089000002805D0012001390843F0BD002C13D0F9
:1008A000994214D001205B421843F6E70220002E43
:1008B000F3D1E4E70220002DEFD1E2E7002DE7D1EC
:1008C0000020002EE9D0EDE7002DE9D1EAE7A242B1
:1008D00006DCDFDBAE4203D80020AE42DAD3DCE731
:1008E000012049420843D8E7F0B54F46D646464670
:1008F0004400C0B5C20F47024802400A844666461B
:100900007B0A4800C90F9A46240E1500DB00000E32
:100910008946F600FF2800D18FE001214F464F4065
:100920003900914266D0221A002A00DC9DE000289E
:100930003DD1002E00D18BE0511E002900D0B5E042
:1009400001249B1B5A0144D59B019F09380000F0EC
:1009500087FD05388740844200DD96E0041B3A009D
:1009600020200134E240041BA7403B005F1EBB4136
:10097000002413435A0704D00F221A40042A00D03F
:1009800004335A0127D50134FF2C00D179E001222C
:100990009B015B0AE4B22A405B02E405580AD207D5
:1009A000204310431CBC90469946A246F0BDFF2C44
:1009B000E0D08021C9040E431B2A7BDC31002020BB
:1009C000D140821A9640721E96410E439B1B5A01DB
:1009D000BAD45A07D0D10122DF082A40FF2C33D1E4
:1009E000002F00D1A8E08023DB033B435B025B0ABE
:1009F000FF24D1E7211A00294CDD00282AD0FF2C42
:100A0000B8D08020C00406431B2900DDAFE03000D1
:100A10002027C840791A8E40711E8E4106439B19CB
:100A20005901D6D50134FF2C00D185E001227A4945
:100A30001A405B080B4013439CE7002E00D070E780
:100A40006BE73B1EC5D100227B025B0AE4B2A3E741
:100A500014008FE7002E4DD0481E002857D19B1957
:100A600001245A01B5D50224E0E7002A25D1621CF1
:100A7000D2B2012A72DD9F1B7A0135D5F71A0D001B
:100A800064E7012200232A4086E73B00634A241AD8
:100A900013406FE700296CD1611CC8B201284EDDFC
:100AA000FF2949D09B195B080C0063E7FF2A41D05E
:100AB0000A0081E701269B1B89E7002C1CD0FF2838
:100AC00021D08024E404524223431B2A00DD96E017
:100AD0001C002025D440AA1A93405A1E9341234358
:100AE000F31A04000D002DE7002F00D02EE700229E
:100AF0000024A9E70C003DE7002B58D0D243002A80
:100B0000EED0FF28E1D13300FF240D0032E7FF29AA
:100B100010D0010078E7002B6ED0FF24002E00D10A
:100B200028E780225146D203114203D06146114288
:100B300000D13300FF241DE7FF2400232CE7002C05
:100B4000E9D1002B63D0002E00D113E79B195A0185
:100B500000D43EE7314A0C0013400BE7002C1ED1B5
:100B6000002B2FD1002E4FD033000D0002E70126BD
:100B700055E7002C1FD1002B43D0C94300290BD0CF
:100B8000FF2839D01B2944DC1C002027CC40791ACF
:100B90008B40591E8B4123439B19040040E7002BD7
:100BA0001AD1002E24D180270022FF031BE7330037
:100BB00004000D00DEE6FF281ED08024E404494234
:100BC0002343DFE7002E00D1D4E69F1B7A0100D437
:100BD00037E7F31A0D00CDE6FF24002E00D1C9E659
:100BE00080225046D2031042A4D060461042A1D1C8
:100BF00033000D00FF24BDE63300FF24BAE60123D5
:100C00006EE733000400B5E6002700221CE733003E
:100C1000B0E60123C0E7C046FFFFFF7DFFFFFFFBFB
:100C200041024300C20F490A1B0E00207E2B0DDD3E
:100C30009D2B0CDC802000040143952B0ADC9620C0
:100C4000C31AD9404842002A00D108007047034B1C
:100C5000D018FBE7963B9940F4E7C046FFFFFF7FC3
:100C6000F0B557464546DE464E46E0B54C000E030D
:100C700087B0834692461D008046360B640DCF0F29
:100C8000002C4FD06F4B9C4235D08023420F1B0469
:100C9000F600134333439946C30098466A4B002637
:100CA0009C460023644403932B031B0B9B466B0061
:100CB000ED0F50465B0D01955ED0624A934253D0D2
:100CC0005A46D1008022400F120402430A43934641
:100CD0005246D1005C4A9446002263443800684082
:100CE00084460290E41A16430F2E00D9B4E0574B05
:100CF000B6009B599F460300334399466CD10023AD
:100D00009846023308260393CEE7CB464146039A22
:100D10000197022A65D1019B4A4C9C460023002280
:100D200098466BE00300334399464ED0002E00D125
:100D3000BCE1300000F094FB03000B3B1C2B00DDFA
:100D4000ACE11D22D31A5A460100DA4008398E4020
:100D50001300334399465B468B40984600233C4C36
:100D60000026241A03939FE751465A46114329D17E
:100D7000002293460232B1E7594601431ED05B463A
:100D8000002B00D19EE1584600F06AFB03000B3BAC
:100D90001C2B00DD8FE102005946083A91408B463A
:100DA0001D21CB1A5146D9400B0059460B435146E1
:100DB0009B469140264B00221B1A8FE700230122FD
:100DC0009B468BE75146032288E700239846013370
:100DD00004260024039367E70323B14603930C26FC
:100DE00062E7032A00D15CE2019B012A00D0E4E122
:100DF00013409C4600230024002298460021120341
:100E0000130B0A0D12051A432305124C40462240CB
:100E1000134362465B00D2075B081343190007B017
:100E20003CBC90469946A246AB46F0BD00238022CA
:100E30009C4612039846034CE0E70023014C002235
:100E40009846DBE7FF07000001FCFFFF4083051029
:100E50000DFCFFFFFFFF0F80D94500D939E100D11C
:100E600034E1002346464D469A46013C5B460A0E55
:100E70001B021A430B02170C039313041B0C3900BB
:100E8000280090460193FFF77BF90200019B8346FF
:100E90005A43280039009146FFF7F8F9350C090448
:100EA0000D43A9450DD95B464544013BA84500D9F2
:100EB0003AE1A94500D837E102235B429C4645440C
:100EC000E3444B46EB1A390018000493FFF758F936
:100ED000019B05004343390004989946FFF7D6F972
:100EE000330409041B0C0B43994509D943446A1E7A
:100EF000984500D91AE1994500D817E1023D4344CD
:100F00004A469B1A5A4612042A4303999346100CE8
:100F10000A0C914609045A46090C4E460D0012046B
:100F2000120C4543059151437243704352190E0C04
:100F3000B218954203D980256D02AC466044150C69
:100F400009041204090C28185218834200D2CEE07A
:100F500000D1C8E01D1A53469E1AB2459241524232
:100F6000AB1A9A46984500D117E139001800FFF7EF
:100F700007F9019B05004343390050460493FFF7EE
:100F800085F904980B04310C1943884209D941446E
:100F90006B1E884500D907E1884200D804E1023D74
:100FA0004144049BCB1A180039000493FFF7E8F87A
:100FB000019B82464343390004980193FFF766F989
:100FC00001980B043104090C194388420DD953468A
:100FD0004144013B884500D9E8E0884200D8E5E07B
:100FE00002235B429C464144E244019B2D04CE1AFD
:100FF00051462943059D4F462A000B04080C1B0C43
:101000005A4345437B4378435B19170CFB189D42B9
:1010100003D980256D02AC4660441D0C12041B04EC
:10102000120C28189B18864200D293E000D18EE063
:1010300001231943A04BE318002B00DC99E04A0779
:1010400000D09EE05A46D20106D55A469B4B1A4024
:1010500080239346DB00E318994A934268DD01231D
:10106000029A984C1A400023944698460022C5E6FE
:1010700080224B46120313420AD05B46134206D12C
:101080001A431203120BAC4688468E4CB6E64B460A
:101090001A431203120BBC468A4CAFE603005A46B1
:1010A000283B9A4000239146984657E6584600F060
:1010B000D7F9203040E603005246283B9A400021F1
:1010C000934677E600F0CCF920305FE6884500D201
:1010D000C7E64B46DE075D0843465B081E434346B2
:1010E000DB079A46C2E60025924500D333E7039E0C
:1010F0005946B446E244B245AD416D424544EB1811
:101100000139984507D2984200D97FE000D1BCE070
:101110001D1A8B461FE79845FAD1039D5545F2D914
:1011200043468B461D1A16E79B46CAE61500E7E6BE
:101130005A46C90852070A435B0590465C0D5A4659
:101140000123029952021940120B8C4656E6002BDD
:1011500000D16FE746444A1EB04529D911008642A6
:1011600000D065E7039A934200D061E762E701216E
:1011700049420120C21A382A21DD029B03409C46C5
:1011800038E60F220A40042A00D15BE70A00111D4D
:10119000914292415242934454E7474BE318002B4B
:1011A000E5DD01225242F2E71D00FAE69A461CE70D
:1011B000B04239D86ED011003AE702933AE71F2ABD
:1011C0003CDC20239B1A0C005846994098404B1E4B
:1011D00099415B46D440D340204308431A0043075B
:1011E00009D00F230340042B05D00100081D8842BD
:1011F0009B415B42D21813023AD50123029A012483
:101200001A400023944698460022F7E502214942FD
:101210008C46039DE344AC46E244AA45AD416D4291
:101220004544ED182D1A96E68A1E03994D008D420D
:10123000894149424144761803958FE71F20404277
:10124000C31A5846D8400300202A28D040205D46C3
:10125000821A954029434A1E9141194307230022CF
:101260000B4009D00F2300220B400800042BBDD1F6
:10127000010053075202120BC90819430123884683
:101280000299002419408C46B8E55245BED88B46D9
:10129000002560E6039D9D42C6D3110062E700254C
:1012A000D8E780225B4612031A43019B1203120BFC
:1012B0009C468846034CA1E5FF030000FFFFFFFEAC
:1012C000FE070000FF07000070B5002830D0C317EC
:1012D000C4185C40C50F200000F0C2F8174B184A34
:1012E0001B1AD21A1F2A18DD164AD21A944000225D
:1012F00024035B05240B5B0D0021100024030A0D61
:10130000240B12052243104C1B05224013435B00A3
:10131000ED075B082B43190070BD210091400A00C6
:101320000B21081AC4405B052403240B5B0DE3E783
:101330000025002300240022DEE7C0461E04000032
:101340003304000013040000FFFF0F80F0B54C00D1
:10135000640D0B03621C450F5B0A52052B43C90F3A
:10136000C500520D012A28DD3A4AA618FE2E1BDCC4
:10137000002E3EDD80010200501E82416D0F2A4387
:10138000DB0013435A0704D00F221A40042A00D06E
:1013900004338022D2041A405AD00136FF2E03D0E3
:1013A0009B015B0AF4B201E0FF2400235802E4052C
:1013B000400AC90720430843F0BD002C07D01D4355
:1013C000F2D08020DB0080040343FF26DAE72B43C2
:1013D00003D00523DB08FF2C03D05B025B0AE4B2D9
:1013E000E4E7002B32D08020C00303435B025B0A9A
:1013F000DCE73200173214DB80221E27120413436D
:10140000BF1B1F2F0FDC144A944664442A00A540DA
:101410002E00A340751EAE41FA403343134300260D
:10142000B0E70024D5E702225242961B1A00F24090
:10143000202F09D0094884466444A3402B435D1EF5
:10144000AB41002613439DE70023F7E70023ADE7F8
:101450003400BFE780FCFFFF82FCFFFFA2FCFFFF20
:101460001C2101231B04984201D3000C10391B0AD4
:10147000984201D3000A08391B09984201D3000998
:10148000043902A2105C40187047C04604030202EF
:1014900001010101000000000000000010B500295A
:1014A00003D1FFF7DDFF203002E0081CFFF7D8FF73
:1014B00010BDC04610B50AF09DF910BD10B509F079
:1014C000B3FD10BD10B50AF069F810BD7FB50BAEC5
:1014D000368808AC09AD2D88248803960A9E0195AC
:1014E000029600940AF076FA7FBD7FB508AC20CC56
:1014F0000AAE247836780194029600950AF0ACF989
:1015000004B070BD10B503F0E7FD10BD10B50BF0D1
:1015100003FD10BD0120704710B503F0CDFB10BDD9
:1015200010B503F047FD10BD10B50DF0ABFD10BDBB
:1015300010B50BF0F1FB10BD10B50AF065FF10BD42
:1015400010B503F09FFD10BD10B503F0A3FD10BD55
:1015500010B507F0E7FD10BD10B510F0DDFC10BDB3
:1015600010B510F077FA10BD10B510F0CFFD10BD1A
:1015700010B510F097FA10BD10B50AF069FB10BD58
:1015800010B507F0A5FB10BD10B50AF085FD10BD24
:1015900010B50AF0ADFB10BD10B50AF0C7FC10BDC8
:1015A0000120704710B506F0F9FB10BD10B512F020
:1015B000A9FD10BD10B512F077FD10BD10B512F0E9
:1015C00057FD10BD10B512F079FF10BD0120704716
:1015D00010B512F0F3FF10BD10B512F0B1FF10BD41
:1015E00010B511F067FA10BD10B511F083FA10BDF7
:1015F00010B511F011FB10BD10B511F0D7F910BDE9
:1016000010B511F0F3F910BD10B511F019FA10BDB5
:1016100010B511F085FA10BD10B511F0A3FA10BD88
:1016200010B510F075FA10BD10B510F044FA10BDE9
:1016300010B510F094FD10BD10B510F0A9FC10BD50
:10164000454B70B505000C00984218D0434B9842AA
:1016500015D0434B984212D0424B98420FD0424B88
:1016600098420CD0414B984209D0414B984206D049
:10167000404B984203D0BB213F4802F0A3FD10230A
:10168000A2689A4303D0BC213B4802F09BFDE3686B
:101690003A4A013B934203D9BD21374802F092FDFB
:1016A000402322699A4303D0BE21334802F08AFDC9
:1016B000802362699A4303D0BF212F4802F082FD44
:1016C000A3692F4A134207D080229200934203D08D
:1016D000C021294802F076FDE3692A4A134207D067
:1016E00080221201934203D0C121234802F06AFDF7
:1016F0002023226A9A4303D0C2211F4802F062FDD0
:10170000214B626A1A4203D0C3211B4802F05AFDE2
:101710001E4BA26A1A4203D0C421174802F052FDA0
:101720002A681B4B216A1A40A3680B4321690B43AB
:1017300061690B43A1690B43E1690B43616A0B4388
:10174000A16A0B4313432B60E3686B602368AB60B3
:101750006368EB6070BDC046080000A01C0000A0DC
:10176000300000A0440000A0580000A06C0000A0C1
:10177000800000A0940000A080830510FEFF000000
:10178000FFFEFFFFFFFBFFFFFFCFFFFFFFBFFFFFDE
:101790000F80FFFF0023036043608360C360036129
:1017A00043618361C36103624362836270470000E7
:1017B000184B70B504000D00984219D0164B984292
:1017C00016D0164B984213D0154B984210D0154B9B
:1017D00098420DD0144B98420AD0144B984207D02F
:1017E000134B984204D016211248FF3102F0EAFC54
:1017F000012D09D98B210F48490002F0E3FC012398
:1018000022681343236070BD002DF8D101222368A4
:101810009343F7E7080000A01C0000A0300000A0E0
:10182000440000A0580000A06C0000A0800000A0B0
:10183000940000A0808305101C4B70B504000D00BF
:101840001600984219D01A4B984216D0194B98425C
:1018500013D0194B984210D0184B98420DD0184B0A
:1018600098420AD0174B984207D0174B984204D0A1
:1018700070211648FF3102F0A5FC0E231D4204D151
:10188000B8211248490002F09DFC012E08D97221AE
:101890000E48FF3102F096FC23681D43256070BDA1
:1018A000002EF9D12368AB432360F8E7080000A0BD
:1018B0001C0000A0300000A0440000A0580000A0C0
:1018C0006C0000A0800000A0940000A080830510A0
:1018D00010B5041E04D1AC210548FF3102F072FCA2
:1018E000A0231B0618682040431E9841C0B210BDBB
:1018F0008083051010B5041E04D1F521034849006A
:1019000002F060FCA0231B065C6010BD8083051004
:10191000024A138ADB07FCD57047C046000010401E
:1019200010B504007F2803D95921094802F04AFC68
:10193000084B1A68084B9A4209D13F22074B6406AC
:101940001A81240C2E3A9C611A80FFF7E1FF10BD2A
:10195000B583051014000020CCBCECFC0000104046
:101960000D4B70B5C2180D4B04000D009A4203D9FF
:10197000A6210B4802F026FC0A4B1A680A4B9A4231
:1019800009D13F22094BA4081A810C3A9C611D64BD
:101990001A80FFF7BDFF70BD0000FCEFFFFF0300E2
:1019A000B583051014000020CCBCECFC00001040F6
:1019B0000368F7B59B010400002B03D17A214E4840
:1019C00002F000FC2379012B06D9043B022B03D93A
:1019D0007B21494802F0F6FBA379012B03D97C2136
:1019E000454802F0EFFB6379012B03D97D21424882
:1019F00002F0E8FB2368DB0406D52379062B03D12C
:101A000080213D4802F0DEFB23689B0406D5237944
:101A1000062B03D18121384802F0D4FB21792068BC
:101A2000002931D18022D20553688343536020239B
:101A30005B420193802300222668DB0530000125EC
:101A4000D04028420BD0D0B2072A26D897000E35B6
:101A5000BD40D86AA8430D00BD402843D862019814
:101A60000132043001901A2AE8D180236279DB0523
:101A7000012A3AD1DA683243DA60A279012A37D1F1
:101A80009A6816439E60F7BD0629D0D18022D20500
:101A90005368002103435360C9E70700083F072F3D
:101AA00009D80F27019D186BAF40B8430F00AF4016
:101AB00038431863D3E7103807280AD80F25019F49
:101AC000586B203FBD40A8430D00BD4028435863DC
:101AD000C5E70F25019F188F403FBD40A8430D006B
:101AE000BD40284380B21887B9E7DA68B243C3E73C
:101AF0009A68B2439A60C6E7EC83051010B583017B
:101B00000400002B04D1A6210348490002F05AFB2F
:101B10008023DB05DC6310BDEC83051010B5830169
:101B20000400002B04D1C2210448490002F04AFB02
:101B30008023DB051A6854401C6010BDEC8305103F
:101B4000202310B5013BC25CCC5C121B01D1002BE1
:101B5000F8D1100010BDC02380211B061A680A436B
:101B60001A601A688A431A607047C02301211B0655
:101B70001A680A431A601A688A431A607047C023B9
:101B80001B0618688007C00F70470000054B012036
:101B90001B78002B04D1044B1868431E9841C0B237
:101BA0007047C04610030020000400C070B52D4CE3
:101BB00090B0060020220D006846210002F049FD89
:101BC00021002022203108A802F043FD731E022BC1
:101BD00012D90E212448FF3102F0F4FA0124032E19
:101BE00018D169462800FFF7ABFF204B0222197875
:101BF000002833DB0A432BE0012E1DD108A9280061
:101C0000FFF79EFF194B04221978002805DB3400EA
:101C10000A431A70200010B070BD9143144A197025
:101C200029002B0020311C68581B043384508B4240
:101C3000F9D100241462EDE7022ECFD169462800C5
:101C4000FFF77EFF094B01241A78002802DB2243AC
:101C50001A70DFE7A2431A70064AE1E79143197050
:101C6000054ADDE7F88105102284051010030020E5
:101C70006C0400C0900400C0B40400C0431E70B5E2
:101C800004000D00022B12D94E210D48FF3102F045
:101C900099FA0120032C09D10A4B1A00ED1A2032BF
:101CA0001978E95401339342FAD1002070BD01281C
:101CB00003D00228EDD1044BEFE7044BEDE7C0461B
:101CC00022840510B40400C0900400C06C0400C05D
:101CD0000D4B70B505000E00184203D187210B484B
:101CE00002F070FA0A4C012E07D98821074802F049
:101CF00069FA236AAB43236204E0012EF9D1236A17
:101D00001D43256270BDC0469F3F0F0057840510DC
:101D100000009040244B1A7A244BD2B21B899BB20C
:101D2000002A36D11A00093A782A19D809211A004E
:101D300006200A408A422BD0112201301A40112A73
:101D400026D0212201301A40212A21D04122080028
:101D50001A40412A1CD0812201301A40812A17D012
:101D600002221900FF3211400B20914210D01900BD
:101D70000F4A0130114091420AD01A000738024040
:101D8000824205D00238184003384342584180004F
:101D900070470120022AFBD00018042AF8D0002046
:101DA000082AF5D10330F3E7000090400000104806
:101DB0000104000010B5094C012808D95F2108482A
:101DC00002F000FA0123226B1343236310BD0028A5
:101DD000F8D10122236B9343F7E7C046000030405F
:101DE00090840510F8B50368664A013B05009342EC
:101DF00003D99321644802F0E5F92B79032B03D929
:101E00009421614802F0DEF96B79032B03D9952107
:101E10005D4802F0D7F9AB79012B03D996215A48D6
:101E200002F0D0F9EB79022B03D99721564802F042
:101E3000C9F92B7A032B03D99821534802F0C2F930
:101E40006B7A032B03D999214F4802F0BBF9AB7A87
:101E5000012B03D99A214C4802F0B4F94B4C296864
:101E6000236B1B0700D56DE009014948FEF788F98F
:101E7000C3099AB2A284474ADB0101301340C01A59
:101E8000400880B23F2802D93F233F38184003273B
:101E90006026414BC0B21870404B2A7918783A40FE
:101EA0005201B0431043187001206979227F3940F4
:101EB0004901B2430A432277AA7919780240BA400D
:101EC0000730814311431970217F81430A432277F0
:101ED000EA79002A38D102211A788A431A70227FBF
:101EE0008A43012022772A7A216B1600C2402C4FA8
:101EF00006407602394031432163216B294E02406E
:101F0000314012020A432263697A226B0E00C140FB
:101F1000254F06403A40B60332432263226B234EDC
:101F200001403240C90311432163AA7A1978024063
:101F30000F301201814311431970237F83431A43E9
:101F40002277F8BDC90090E7022A0CD10420197845
:101F500011431970197881431970217F0A43227740
:101F6000227F8243BDE702211A780A431A700422B5
:101F7000187810431870207F01432177217F0A438E
:101F8000AFE7C0463F420F0090840510000030408C
:101F90000000127A80FF7F00280030402C00304083
:101FA000FFFDFFFFFFFEFFFFFFBFFFFFFF7FFFFF04
:101FB000E1235B02032203600023027142718371FB
:101FC000C371027243728372704700000E4B70B58A
:101FD00005000E00184201D1002803D1FC210B4856
:101FE00002F0F0F80A4C012E07D9FD21074802F053
:101FF000E9F8238F1D43258770BD002EF9D1238F6B
:10200000AB432387F8E7C0460DE0FFFF908405103F
:1020100000003040074B10B50400984204D912214B
:102020000548FF3102F0CEF8044BE405E40D1C80B6
:1020300010BDC046FF010000908405100000304034
:10204000014B1888C0B270470000304070B50400E2
:10205000124D012820D04300102B15D00300102270
:10206000103B934310D003003032403B93430BD0DE
:102070000B4BC318012B07D90A4B984204D05621A9
:102080000948FF3102F09EF8002C05DA6868044028
:10209000601E8441E0B270BD288BF8E7000030403C
:1020A000FFFFFF7F0400008090840510094B10B5EE
:1020B0000400184201D1002804D1C8210648490073
:1020C00002F080F8054B988F2040431E9841C0B223
:1020D00010BDC0460DE0FFFF9084051000003040A9
:1020E000074B10B50400184201D1002804D1D721B4
:1020F0000448490002F066F8034BDC8710BDC04677
:102100000DE0FFFF908405100600304010B504007C
:10211000062804D9E2210648490002F053F80722B4
:10212000044B1440187890432043187010BDC046EB
:10213000908405103400304010B50400062804D9FE
:10214000DA210748FF3102F03DF80721054A0C402B
:10215000137831318B43E4001C43147010BDC0462A
:102160009084051034003040431E70B505000E0009
:10217000022B03D90A490B4802F024F80A4C012E1D
:1021800007D90A49074802F01DF82378AB432370AA
:1021900004E0012EF9D123781D43257070BDC0469F
:1021A0001D02000090840510480030401E0200000F
:1021B000F8B583780400012B03D95A21264802F090
:1021C00001F86378032B03D95B21234801F0FAFF60
:1021D000A3782178002B33D064784AB2A401002A76
:1021E0001BDA0F230B40083B1C4A9B089B009B18E3
:1021F000FF22032517000D40ED00AF402240AA400A
:10220000DE69BE433243DA611F224B0911401E3A98
:102210008A4013499B00CA50F8BDFF27104B920813
:102220009200D21803233800C0250B40DB009840F1
:102230003C409C40AD005659864334435451E3E73B
:102240001F234A090B40012199401300044A2033FF
:102250009B00D150E0E7C046C684051000ED00E0C9
:1022600000E100E010B5094C012808D977210848A1
:1022700001F0A8FF042322691343236110BD002845
:10228000F8D1042223699343F7E7C04600ED00E04C
:10229000C684051070477047704770477047704795
:1022A0007047704770477047704770477047704776
:1022B000F7B517221A4B02219A81002296271400A3
:1022C0008C463F02012119831C61198B0029FCD027
:1022D00020001969019101998F426041C1B2013218
:1022E00092B2022903D0F620FF30824200D1F7BD1E
:1022F0000129E7D119831C61188B0028FCD01D69C6
:102300000198854208D90198281A019EB60AB04260
:1023100000D861460195E2E70198401BF5E7C04609
:1023200000001048002210B5104B995CC9B200297A
:1023300017D11C2A14DC022021249854501C1C5450
:10234000901C193C1C54D01C19549B1880229021BD
:102350009BB252021343C905CB60CB681342FCD138
:1023600010BD995C01315218D2B2DEE71103002092
:10237000002330B50E4AD15CC9B2002913D11C2B01
:1023800008DC02243525D4545C1C15559C1C0333F1
:102390001055D1540222074B1A7033325A70002262
:1023A0009870DA7030BDD15C01315B18DBB2E2E7C6
:1023B000110300207403002010B5104B00280AD030
:1023C000802290219BB252021343C905CB60CB6897
:1023D0001342FCD110BD042198789A789CB28A43AC
:1023E0009A708022902152021443C905C0B2CC6079
:1023F000CC681442FCD19870ECE7C046740300200E
:10240000012330B5234A0324117A85B00B4313729C
:102410000022214B1A60FFF77DFC6B4603331870D6
:102420001A78002A03D1013CE4B2002CF3D11A78C7
:10243000052A2BD91B780B2B10D001AC200000F003
:10244000A9F96278A37812011A43144B1B681B0781
:102450000AD4112A02DD0120FFF7AEFF0122104B42
:102460001A70FDF756FEFEE790250E4CED05286923
:102470002368283B1B1A1B02002BEFDD112A02DD0B
:102480000120FFF799FF23686B60E7E7012005B0A3
:1024900030BDC0460000204014000020C0000020D5
:1024A0000C0000201800002070B5FFF7A9FF0128DC
:1024B00017D1002314481549154C1A188A4216D30F
:1024C000002314481449154C1A188A4213D30021CA
:1024D000134B144A934212D30021134B134A9342D5
:1024E0000FD3134B83F3088801F046FE70BDE55807
:1024F00004331560E1E7E55804331560E4E702C3EF
:10250000E8E702C3EBE7C046200500207405002081
:102510008C8B05100800002034000020608B051013
:10252000C0000020CC020020CC02002020050020AA
:102530000060002070B58AB003AC05000E001922BF
:102540004249200002F085F8684600F023F9002D8A
:102550005CD044233E4AA373117A433B0B4313726E
:102560006C23E372513B23753A4B3B4A1B68190CB1
:10257000914208D17020E17D1B018143E175E17D2D
:1025800003400B43E375354B1B68190C914208D18E
:10259000302061791B0181436171617903400B43F4
:1025A00063712F4B1B68190C914207D10321E27D07
:1025B0000B408A43E275E27D1343E3750422E37A1C
:1025C00069469343E3726B465B78897893400B438B
:1025D000112B06DDE37D1A43E275E07DC0B2FFF703
:1025E000C7FE802390222404240C5B021C43D205E6
:1025F000D460D1681942FCD16B466A465B78927808
:102600001B011343112B01DDFFF78CFE154B1A8BB9
:10261000002AFCD001221A8316329A8100221A6104
:10262000964209D090231021DB0518691A694240AF
:102630000A42FBD0FFF73CFE002D02D015220A4BC8
:102640001A700A4A0A4B1A600AB070BD3882051027
:1026500000002040E807001055AA0000E407001021
:10266000B0070010000010480000C040CCBCECFCDB
:10267000140000200822C021F8B53F4B3F4D9A803E
:102680003F4A0904136AFF202B400B43C021136209
:10269000136A09061B021B0A0B431362C022920035
:1026A0009446384B64469A58374E82433F3802432B
:1026B00060461A501A58C0203240000202431A5194
:1026C000C122FF2792009C58BC433F3F3C439C5093
:1026D0009C583F37344004439C509C582C409C509D
:1026E0009C582402240A0C439C50083294466446A9
:1026F0009A58324002431A511A59C0242A402404DD
:10270000224364461A511A591202120A0A431A51F4
:10271000C4229200944664469A58324002431A51A9
:102720001A59C0242A402404224364461A511A59D3
:102730001202120A0A431A51C52292009C58BC4345
:102740002700C0242743C0249F509F5824043E40A4
:1027500030439850985805402C439C50985800029C
:10276000000A0143995001210800FFF7E3FE074AE0
:10277000074B1A6262B6F8BD00001040FFFF00FF71
:1027800000ED00E000E100E0FF00FFFF66000E004A
:10279000000090400E4AD3691B061B0F4370D9B24C
:1027A000D3690C4A1B071B0F83700B4B1B684360DC
:1027B00093420BD102230370002901D101234370FE
:1027C000064B9B8A01339B00836070470123F2E72D
:1027D0000000904041A000022800904000001040FE
:1027E000F0B5070085B001AC0E0020001500FFF722
:1027F000D1FF23783B7063783370A3782B7005B0DA
:10280000F0BD10B501F025FF10BD10B501F03CFF83
:1028100010BD10B501F00EFF10BD0000F0B51B4C4F
:102820001500A5440E910400EFF31083069372B6D1
:102830000022174B1A7014F059FD0600200001F019
:10284000BFFC331C864200D9031CDAB2A24200D975
:10285000231CDBB20F4A990000938B5801338B5035
:10286000009B002B07D1069B83F310880020A9232F
:102870009B009D44F0BD009B012B0FD10021064B16
:102880001A7A1972D2B230BF1A72ECE75CFDFFFF00
:102890000C000020340300200000704038226B46FA
:1028A000E14C9B1825701B787DA82371FFF772FF00
:1028B000237ADE49DBB20A938B88DD4A9BB2109300
:1028C00013685C91119300230894059280A91A0063
:1028D0000598C032920080589A0001335050082B5E
:1028E000F5D1D44CD4482368D4491293036AD44F09
:1028F00013938023DB051A68D24E14925A68D24D86
:1029000015929A681692DA6817921A6918925A699B
:1029100019929A691A92DA690B92DA6A1B921A6B07
:102920001C925A6B1D921A8F92B21E925B6CC74A10
:102930001F93CB6820930B7FDBB221938B8C9BB2D0
:102940002293C34B1B78DBB22393C24B1B78DBB2C1
:1029500024930B6B2593C04B1B78DBB226930B8F14
:102960009BB22793BD4B1B78DBB22893BC4B9C4694
:102970001B78DBB229933B78DBB22A933378DBB246
:102980002B932B78DBB22C93B64B1B78DBB22D93B9
:1029900013682E9353682F93137CDBB23093137D0F
:1029A000DBB23193B04BDB7FDBB23293138D9BB242
:1029B0003393D36A3493138E0491A5499BB25E91ED
:1029C000A44935935F91A44900236091A3490192E2
:1029D00061916146A44A6291A2495D9463976496AD
:1029E00065950F906691679269AF6BAE6DAD6FACF8
:1029F0009E4A9A1892041168D95151689951918B45
:102A0000E950118CE150908C71A9C850108D73A9B8
:102A1000C850D06A75A9585011004C31088877A960
:102A2000C850106D79A95850916D7BAA9950043304
:102A3000082BDDD1B0231B061B688D4C36936368D1
:102A40008C4A3793A3688C4D3893238A9BB2399371
:102A5000A38A9BB23A93A3693B93237FDBB23C9357
:102A6000238E9BB23D93636B3E93A36B3F93E36BCB
:102A70004093236C4193636C4293A36C439393887C
:102A80009BB2449313899BB24593137CDBB246936C
:102A9000137DDBB24793138B9BB24893137FDBB25A
:102AA0004993764B998889B24A91198989B24B9199
:102AB000197CC9B24C91197DC9B24D91198B89B25B
:102AC0004E91197FC9B24F916D490868509048687E
:102AD000519028685290287AC0B25390C0200001CB
:102AE00028580995039302920D000023002800D175
:102AF000644B90AA0D939446002388A898A90522B8
:102B000066465A43604FD21957689F5117681F5045
:102B100097685F50D768A0AA9F500433202BEED14E
:102B20008123DB055A6854921A7BD2B255925A8B94
:102B300092B256921A8B92B257925A6A58929A6AE5
:102B40001B8859929BB25A93C0231B069B685B93C8
:102B5000009B032B06D19022C023D20551689B0510
:102B60000B435360494B4A4A1B680793503B0C93F5
:102B700000230C99C9180968D1500433502BF8D19F
:102B8000444B079A1A607DAA537892781B0113432D
:102B9000112B04DD0020404B1860FFF70DFC902343
:102BA000DB055A683D4B1A60089B1E791A78802312
:102BB000DB051B685B0A53409E4300D053E60120AF
:102BC000FFF750FBFDF77CFA3000FFF74BFB344B6F
:102BD0001B78002B00D0A1E032494B685B0675D40E
:102BE000314B32484A6800685C6A844216D13048EA
:102BF00049680068884204D005994240096811423A
:102C00000CD12C4A596812685140C90006D45B683F
:102C10005A4053015AD52B689B0757D5264A274857
:102C200013681B09D91C4BE0000020400000104035
:102C300000E100E020ED00E00000904000003040A6
:102C400054003040580030405C00304000004040AC
:102C5000280030402C0030403400304048003040E4
:102C60005000304060003040050040402810000017
:102C70000000F0400000D040000070400000E04044
:102C800010E000E051E5CC1A080000A0000004109C
:102C90008803002084030020140000201800002076
:102CA0000C000020FCE100E000ED00E070030020DB
:102CB000800300207C03002010000048FFFF0F006D
:102CC00081421BD813681B099942FBD87DAA53780F
:102CD00092781B011343112B05DD0120FFF76CFBDC
:102CE0000A4A0B4B1A60009B032B00D0BBE59022D5
:102CF000D205536807490B405360B4E506495B1899
:102D0000116809099942FBD1E0E7C046CCBCECFC54
:102D100014000020FFFFFFCF0400F0FF0122E74F67
:102D20003A83E74ABE813E610C9B91599B19043658
:102D30001960502EF8D1079AE24B40211A606A467A
:102D400052185C9B128880A89A80059B119A1A6081
:102D500000239A0011581A00059EC03292000133D8
:102D6000B150082BF5D15D9B129A78211A600F9B08
:102D7000139A6DAE1A628023149ADB051A60159AB5
:102D80005A60169A9A60179ADA601A9A9A61199A92
:102D90005A61189A1A610B9A9A620B9ADA611B9A15
:102DA000DA621C9A1A631D9A5A636A46521812888C
:102DB0000C311A871F9A5A64049B209ADA606A467B
:102DC0005218049B127804311A776A465218049BF1
:102DD000128804319A846A4652185E9B1278043134
:102DE0001A706A4652185F9B127808311A70049B59
:102DF000259A1A636A465218609B127804311A7039
:102E00006A465218049B128804311A876A4652187F
:102E1000619B127804311A706A4652181278629BCC
:102E200004311A706A465218639B127804311A7082
:102E30006A465218649B127804311A706A46521816
:102E4000659B127804311A706A465218669B127894
:102E50000C311A70019B2E9A1A60019B2F9A5A60AE
:102E60006A465218019B127804311A746A46521845
:102E7000019B127804311A756A465218679B1278C2
:102E80000431DA776A465218019B128808311A8594
:102E9000019B349ADA626A465218019B12881A869C
:102EA000002369AA94466FAA049261460C20864AC0
:102EB00059589A189204116068A90918C9585160A4
:102EC0000191995B91830499595A118471A95958B8
:102ED00089B2918473A9595889B2118575A9595835
:102EE000D16277A9595888B211004C31088079A96C
:102EF000595811657BA9595804339165082BD4D1D1
:102F0000B023369A1B061A60519B509A6B600023BF
:102F1000AB602A60379AE4216260389A8820A26008
:102F20006A4652181288043122826A465218128860
:102F30000831A2823B9A4000A2616A465218127878
:102F4000043122773E9A052662633F9A90ADA263D0
:102F5000409AE263419A2264429A6264439AA2646C
:102F60006A4652186946128809182286029A098808
:102F70000430918069460918029A09880430118149
:102F800069460918029A09780430117469460918CB
:102F9000029A0978922411754021489A02988A432E
:102FA0000283684664000019029A0078043410779E
:102FB00068460019039A0088043490806846001916
:102FC000039A00880434108168460019039A007837
:102FD0000434107468460019039A007888AC1075A0
:102FE0004E9A9E208A43039940000A836946091835
:102FF000039A097810301177099A5299116069463D
:103000000918099A09781172C0220D9809991201BC
:10301000885098A832005A432C4952185959516087
:103020001959116019589160A0A959580433D160F9
:10303000202BEFD18123549ADB05AA215A606A46DE
:1030400049005218127804311A736A4652181288CD
:1030500004315A836A46521812880C311A83589ADE
:103060005A62599A9A626A46521812881A80C02384
:103070005B9A1B069A600F9B1B7A002B49D13B89F8
:10308000082B46D93B89812B43D80E9B002B40D07F
:1030900009223B891340934204D18023DB05DB697D
:1030A0009B0533D411223B891340934210D18023D6
:1030B000DB05DB695B0529D40AE0C0460000104847
:1030C000880300208403002028100000080000A0CE
:1030D00021223B891340934204D18023DB05DB6925
:1030E0001B0513D441223B891340934204D1802312
:1030F000DB05DB69DB0409D481223B891340934261
:1031000007D18023DB05DB699B0402D50122214B1B
:103110005A60009B032B05D19022D20553681E49AB
:103120000B4053606A4628215218089B12781A7285
:10313000009B032B2BD100202739FFF7FBF90A9BBB
:10314000DB0701D4FFF78FFBFEF7E4FD68ABD87017
:1031500003331B780B2B15D0104B1B881B0711D585
:1031600090220F4BD20511691B685B1A1B021B12C0
:10317000D9175B184B40202B04DC13692D331169E0
:103180008B42FCD21522074B1A70FFF76CFB002113
:103190000800D2E7FCE100E0FFFFFFCFC000002005
:1031A000180000200000C04007B500236A466946A9
:1031B0005371062268460A710A3200928B71FEF73B
:1031C000F7FB07BD10B51020FEF798FC10BD10B539
:1031D0001020FEF7A3FC10BDC021074A074B08488A
:1031E0005360036A09061B021B0A0B430362002398
:1031F000936007331360704710E000E0FE7C00002E
:1032000000ED00E0024A1368013313607047C046C6
:1032100044030020014B18687047C0464403002057
:10322000034A0130116813685B1A9842FBD8704753
:1032300044030020F0B5060093B0002803D11B2101
:103240003E4800F0BFFF3E4A73689B183D4A9342D8
:1032500003D91C21394800F0B5FF337A022B03D97A
:103260001D21364800F0AEFF3378002B2ED090237E
:103270001B010025012707AC20000793277165710A
:10328000A571FEF795FB04A8FEF792FE736804A8EB
:10329000049302AB9F74FEF7A5FD2800FEF736FFEE
:1032A0002800FEF749FF337A0193BB4210D1042373
:1032B0002370013B63706B461B792000A370FEF7FF
:1032C00077FF01987572FEF775FD34E03023D0E783
:1032D000019B3800022BF6D1FEF76CFD2000FEF7B3
:1032E00059FA194B2100236080239B01636220233C
:1032F00016482362A562E5616561A5612561E76005
:10330000A560FEF79DF939003800FEF72DFF102368
:103310002100A3600E48703363612562FEF790F9C7
:1033200001983900FEF720FF172303A80370877068
:103330004770FEF73DFF13B0F0BDC046F3840510A3
:1033400040EDFFFF40FD0D0000003040080000A0F0
:103350001C0000A092B270B54161028304001E00FF
:10336000FFF758FF0500208B80B2002800D170BD08
:103370008020FEF76BFE012809D163695A1C626147
:103380001878FEF747FE238B013B9BB22383FFF7A0
:1033900041FF401BB042E6D904204042E7E710B5A8
:1033A000447AE4B2002C0BD1022392B24372C16082
:1033B0000282FA200121C000FEF708FE200010BDA5
:1033C00002204042FBE7000010B592B20282038A5D
:1033D000074C9BB2C16063602000E1600121FEF7F1
:1033E000E7F9200001220A21FEF726FA002010BD8D
:1033F000080000A07047000070B50400F820C0006D
:10340000FEF754FE051E60D18820FEF761FA002801
:103410005BD1237A012B42D11030FEF747FE002802
:1034200019D0637A022B39D1E568FEF709FE2870BE
:10343000258A013DADB22582002D2FD11020FEF747
:103440004FFEFA2065722900C000FEF7BFFD200084
:1034500000F091FF22E081204001FEF727FE0028C6
:103460001BD0637A012B19D163695A1C62611878E9
:10347000FEF7D0FD258B013DADB22583002D0DD18A
:103480002020FEF72DFEBF20657229004001FEF7C7
:103490009DFD2000FFF7AEFF00E0C04670BD02209A
:1034A000FEF716FA051E03D00120FEF723FACEE739
:1034B0001020FEF71FFA29000A48FEF779F92A00C2
:1034C0000A210848FEF7B8F9E3E7A5728820FEF75D
:1034D000FFF9012801D11023A372200000F059FF49
:1034E000DCE7C0461C0000A0B52370B50370533B59
:1034F000437000231C00821C8E1E151AAE420CDC89
:103500004218951E013A2C7089B21370C82200F03F
:1035100039F9431E9841404270BD15780132641953
:10352000E4B2E318DBB2E8E7F0B5022185B00400AD
:1035300000F00CF9002851D12378B52B64D16378C1
:10354000622B61D102900390322102A800F056FF55
:1035500002A800F060FF002809D100F01BF9032841
:10356000F6DDA01C032100F0F1F8002833D1257905
:10357000E3782D021D4302A8EE1D00F046FF02A8CD
:1035800000F049FF00280BD100F004F96B1C8342C6
:103590002BDA711F89B2601D00F0D8F8002822D103
:1035A00000221100A31C6F1D181B874225DCA419E3
:1035B000A31E1B788B4203D1601E007890420FD06F
:1035C000013C20780090134800F0B4FE66211248B8
:1035D00000F0B0FE02E0114800F0ACFE01256D42A3
:1035E000280005B0F0BD0E48F6E700F0D3F8AA1C9D
:1035F00001000C4800F09EFEC1E71878013309185D
:10360000C9B28A18D2B2CFE7074800F093FE00F0A3
:10361000C7F8E3E75D8505107A8505100A85051072
:103620002B850510448505108485051037B50824C1
:10363000050022000021684601F026F801236A46B1
:1036400021009370D37055716846FFF74DFF431EFC
:10365000984140423EBD13B5072400212200684630
:1036600001F012F804236A46210093706846FFF7C0
:103670003BFF431E9841404216BD71B514008022A5
:10368000FFB006000D0092000021684600F0FCFF2C
:103690006846FFF749FF431C0FD06B469878023805
:1036A000032822D8FCF762FD0B0213196B4628226F
:1036B000591D300000F0CDFF03207FB072BD6B4676
:1036C0002B22591D280000F0C4FF0220F5E76B46AD
:1036D000587900F0CDFC0420EFE76B462C22591DF1
:1036E000200000F0B6FF0520E7E701204042E4E7B4
:1036F00037B56B46084CD8712000DD1D00F0BAFECE
:10370000002804D12900200000F0BEFE37BD034888
:1037100000F010FEFAE7C046D8040020918505109D
:1037200010B500F037FE80220023520004490548FE
:1037300000F07DFE0121044800F048FEC01710BDD6
:10374000D8030020D804002048030020F8B50C4D11
:10375000070028000E0000F093FE002803D1AB689C
:103760003C00B34207DA0120404208E02100280073
:1037700000F0BCFE0134E31BB342F7DB0020F8BDD0
:10378000D804002010B500F013FE431E98414042BB
:1037900010BD0000014B98687047C046D804002057
:1037A00010B5024800F0D3FE10BDC046D80400207A
:1037B000F0B51024AD4DC7B0290022000EA800F0CE
:1037C00048FF2919802226A800F043FFA84D2200B7
:1037D000291912A800F03DFF29004022203116A827
:1037E00000F037FF22000EA906A8FFF70AF8A14E45
:1037F00006A900961A230122022000F0E6FFAE215E
:10380000071E00D02DE1220026A90AA8FEF7F9FF25
:103810000123994D30880293113304970197009347
:10382000022105950394093B0AAA00F0AFFFB321DA
:10383000071E00D015E122002AA90AA8FEF7E1FF21
:10384000AB1C3088059312230497029701970093CD
:1038500002210394053B0AAA00F098FFB821071E35
:1038600000D0FEE022002EA90AA8FEF7CAFF2B1DF9
:103870003088059312230497029701970093022141
:1038800003940F3B0AAA00F081FFBD21071E00D060
:10389000E7E0220032A90AA8FEF7B3FFAB1D30888B
:1038A000059312230093103B049702970197190088
:1038B00003940AAA00F06AFFC221071E00D0D0E0DC
:1038C000220036A90AA8FEF79CFF2B000833308897
:1038D0000593122304970297019700930221039402
:1038E00002330AAA00F052FFC721071E00D0B8E039
:1038F00022003AA90AA8FEF784FF2B000A33308879
:1039000005931223049702970197009302210394D1
:103910000F3B0AAA00F03AFFCC21071E00D0A0E01E
:1039200022003EA90AA8FEF76CFF2B000C3330885A
:1039300005931223049702970197009302210394A1
:1039400002330AAA00F022FFD121071E00D088E02E
:10395000220042A90AA8FEF754FF012330880E3541
:103960000493029319330093022105950394019760
:10397000153B0AAA00F00AFFD621002800D070E00B
:10398000220012A906A8FEF73CFF3C4B06A90093B3
:1039900001220D23022000F018FFDB21002860D156
:1039A000220016A90AA8FEF72CFF00230122314F9E
:1039B000334D7888049301931233029200930221CD
:1039C00005950394073B0AAA00F0E0FEE021061EDD
:1039D00047D122001AA90AA8FEF713FFAB1C78886A
:1039E00005931223049602960196009302210394F4
:1039F000093B0AAA00F0CAFEE521061E31D12200C9
:103A00001EA90AA8FEF7FDFE2B1D78880593122338
:103A1000049602960196009302210394043B0AAA9D
:103A200000F0B4FEEA21061E1BD1220022A90AA83A
:103A3000FEF7E7FE122306357888022103940093EF
:103A400005950496029601960A3B0AAA00F09EFE8E
:103A5000EF21041E05D10B4800F06CFC200047B09C
:103A6000F0BD094800F066FC4720F8E751820510D8
:103A7000D1820510000500204A0300200205002025
:103A80005A0300209C850510AC85051010B5080070
:103A9000140091B2044AFFF775FE002801D00124FA
:103AA0006442200010BDC0461027000070B506001B
:103AB0000D0000246300F05AFDF706FC0022074BBE
:103AC000FDF7CEF8FDF742FC0549FCF70DFFFCF7CA
:103AD00051FD285501340D2CECD170BD000024405F
:103AE00000004843F0B58FB0FFF75EFBFFF76AFBBD
:103AF000FFF716FE334800F01DFC334A0B210AA8DD
:103B000000F02CFD31490AA800F066FD304E314925
:103B100030600622603108A800F09BFD062108AA4B
:103B2000002000F086FE0721012000F07EFE002824
:103B300002D1294800F0FEFB00F062FE041E36D1DF
:103B4000264B07AD28000793FCF708FB1A236B44AC
:103B50000193162306AF2100C2B200976B440120E7
:103B600000F0C8FD1021041E22D12800FCF7F6FA4F
:103B70006B46D98AC3B280B23A880293009003950B
:103B800001942300200000F03FFE122100280FD1F5
:103B9000FFF70EFE222100280AD11149114800F03A
:103BA0002DFC3168104800F0C5FB0FB0F0BD0C21B2
:103BB000FF310E4800F0BEFBA8210D48490000F07F
:103BC000B9FBFEE7D8850510EF1E0000D304000006
:103BD0006C030020D1820510E4850510424D53008E
:103BE000204E0000F00400203C860510FF850510E3
:103BF0001E860510F0B5AFB00EAC2822002118AE1D
:103C0000200000F041FD23AF2B220021300000F006
:103C10003BFD2C220021380000F036FD3A00310037
:103C20002000FFF72AFDB44B0500032800D08AE0EE
:103C30001F78FFB2012F6ED109AEFFF7C8FA2368D3
:103C4000227BE17AAD4800F075FB142200213000A0
:103C500000F01AFD43212A006944300000F0F9FC0D
:103C6000272004222100684400F0F3FC2B200222CC
:103C70000FA9684400F0EDFCA14B1888A14B80B25D
:103C80001A88A14B198809239C46029300230193AB
:103C90006346039600933B0000F0B6FD46203100DA
:103CA0006844FFF703FF964B1888964B80B25A88FA
:103CB000954B19880D239C4602930023019363467C
:103CC000039600933B0000F09FFDE3883380A37AC6
:103CD000B3708B4B18888B4B80B29A888A4B1988AB
:103CE00000230396019302953B00009500F08CFDA4
:103CF00023893380824B1888824B80B2DA88824BCA
:103D000019880223029300230193023300933B009E
:103D1000039600F079FD7D4800F07DFB764D00288C
:103D200000D1BFE02B78012B00D0BBE0784B1B68A3
:103D3000002B00D0B6E0724B0521188880B204F049
:103D400017F92FB0F0BD02284AD11D78EDB2012D30
:103D5000E1D1772109AC727D6944B37D6D4800F0F3
:103D6000E9FA230007CE07C306CE06C3654B142627
:103D70001A89654B624F198800233888019380B2F5
:103D80002B0003940296009600F03EFD1DAB1A88AE
:103D900022809B78A3705B4B38885A895A4B80B23B
:103DA000198803239C4602930023019363460394DE
:103DB00000932B0000F028FD77236B44190032009C
:103DC000200000F046FC4F4B38889A894E4B80B259
:103DD0001988002303940296019300962B0098E71C
:103DE000052800D097E71D78EDB2012D00D092E7AD
:103DF00009AC00211422200000F046FC3B00220008
:103E000003CB03C217001A8800263A809B78BB7048
:103E10003B4B1888404B80B21A883B4B59880B2388
:103E200003940293009301962B0000F0EDFC220016
:103E300026AB03CB03C21B783B70314B0E2718888F
:103E4000354B80B25A88304B59880923039402932A
:103E5000009301962B0000F0D7FCA2213A006944A0
:103E6000200000F0F6FB264B18882B4B80B29A8876
:103E7000254B59882B00039402970196009700F078
:103E8000C3FC22002CAB03CB03C21D4B1888224B72
:103E900080B2DA881C4B5988082303940293019658
:103EA00000939BE72C78E4B2002C00D049E706266B
:103EB0001A4909AF32006631380000F0CAFB210010
:103EC000200004F0E5F8202206940594049403945D
:103ED00002970196009401231100200000F022FCBB
:103EE000002802D00E4800F025FA0E4800F022FA11
:103EF00002232B7025E7C046620300205086051080
:103F0000640300204A03002000050020F004002084
:103F1000680300206E8605105A030020D182051028
:103F200086860510AA86051070B501260D0086B09C
:103F30000BAB19880CAB1A880DAB1B88184800F026
:103F4000F9F9184C184B300025801E7004ADFFF7AE
:103F50006DFB164800F059FA06220021280000F0F7
:103F600093FB134B1B6820880493124B80B2DA89B1
:103F7000114B198804230395002502939B19009384
:103F80000195330000F040FC282214232088110002
:103F9000009380B22B0000F050FC06B070BDC0460C
:103FA000A58705106403002062030020F0040020B0
:103FB0006C0300204A0300200005002010B5132ADE
:103FC0000AD1084800F0B6F90020074B1870074BDB
:103FD0001860FFF72BFB10BD1100054800F0AAF98F
:103FE000F2E7C046768705106203002068030020D0
:103FF0008C87051070B515480E00049D00F09AF9E5
:10400000134BDB895A1C96421FD16A782C78120216
:104010002243AC780F4824042243EC78240614434E
:104020002100320000F086F90B4B9C4205D10122A1
:104030000A4B0B481A6000F07DF92B79022B04D152
:10404000FFF709FB074800F075F970BDE986051018
:104050004A03002000870510370500006803002090
:104060000A8705101E8705107047704770470000CB
:1040700010B51724104B86B01B786C442070012BB0
:1040800017D1C3B20D49012B00D00D490D4800F0E6
:1040900051F90D4B18880D4B80B2DA890C4B1988F9
:1040A0000123039404240194E4180293009400F083
:1040B000ABFB06B010BDC04662030020C0860510F1
:1040C000C9860510D0860510640300204A0300202D
:1040D0000005002007B506A80088190004AB1A885F
:1040E00005AB1B880090024800F024F907BDC046CC
:1040F0004C87051010B5024800F01CF910BDC046F1
:104100003487051010B5024800F014F910BDC04600
:104110005987051010B5024800F00CF910BDC046D3
:1041200065870510BFF34F8F024A034BDA60BFF378
:104130004F8FFEE70400FA0500ED00E010B5FFF731
:10414000F1FF10B5FFF7EEFF10B5FFF7EBFF10B56D
:10415000FFF758F810BD10B504F050FE10BD000078
:1041600010B50248FFF748F910BDC046040500200D
:1041700010B5FFF7F5FF10BD10B5FEF77BFA012172
:104180000D48FDF7A5FDFFF727F8FA204000FFF7DF
:1041900047F80A4800F0A2FB002800D0FEE7FFF72E
:1041A000A1FCFFF727FD00F055FB002211001000D5
:1041B000FEF734FBF5E7C04609000100E087051073
:1041C00003207047FEE7F7B507000E0001240192B7
:1041D00021003000FBF7D4FF019B984202D2002C53
:1041E00003D1F7BD019B5C43F2E721003000FBF7F0
:1041F000C7FF210005003000FCF748F820000E0042
:104200000199FCF747F83B6804005A1C3A60092DF5
:1042100002DD37351D70E2E73035FBE7F7B51300F7
:1042200005000C002D2601902278002A04D1019B64
:104230001A70019B581BFEBD252A44D16278642A5E
:1042400020D00AD8582A13D0632A14D0252A09D19D
:104250000199481C01900A7004E0732A21D003D808
:10426000692A0FD00234DFE7752A28D0782AF9D1DD
:104270001F1D102225E0019A511C01911978043369
:104280001170EFE719681F1D002904DA019B4942EC
:104290005A1C01921E700A2201A8FFF794FF3B00EE
:1042A000E0E7191D1B681A78002A01D10B00D9E735
:1042B000019A501C0190187801331070F3E70A221C
:1042C0001F1D1968E8E701990134481C01900A7024
:1042D000AAE7002310B50278002A01D1180010BD0A
:1042E000252A24D14278441C692A12D007D8632A8F
:1042F0000DD0642A0DD0582A07D108330AE0752A58
:1043000007D0782AF9D0732A06D001330BE00431A4
:10431000FBE70B33043106E00A68081DD21AD15CB2
:10432000002902D10100601CD5E70133F7E7013312
:104330000400F8E70FB41823B3B500AFFC1820CC85
:10434000210028007C60FFF7C4FF6B460730C008DF
:10435000C0001B1A9D462900220068467C60FFF7BA
:104360005DFF694602000120FFF790FBBD46B6BC29
:1043700008BC04B0184710B50400C3681878FFF7EC
:10438000B7F9227A012A03D1E1682000FFF707F884
:1043900010BD70470123054810B50370E1235B028F
:1043A000436002230372FEF745FF10BD04050020A1
:1043B000130010B50A0001000348FEF7CBFF431EAF
:1043C0009841404210BDC0460405002010B50300CE
:1043D00009480A00017A012906D11900FEF7DFFF1A
:1043E000431E9841404210BD022903D11900FEF737
:1043F000EBFFF5E70120F5E70405002010B541606B
:104400000400FEF707FF206010BD10B50400FEF7A2
:1044100001FF206010BD10B50400FEF7FBFE23680D
:10442000C31A6068013398428041404210BD10B504
:104430000400032B08D81800FBF798FE020D121792
:1044400000232261616163730023A36023602369F9
:10445000013B636010BD9208226161610123F2E7B4
:104460009208226161610223EDE7D2082261616155
:104470000323E8E783680069181A434258417047EC
:1044800080684342584170478268036970B50400F0
:104490000D0001209A4210D0606821690130FBF7BD
:1044A000F5FE6160637B002B08D163682A7861693F
:1044B000CA540020A3680133A36070BD637B012B45
:1044C00008D104226068636980001818290000F090
:1044D000C0F8EEE7637B022BF3D0637B032BE8D1BC
:1044E00060686369C00018180822EFE710B504007F
:1044F000A26808000123002A10D0637B002B0FD193
:1045000023686269D35C0B70206821690130FBF776
:10451000BDFE2160A368013BA3600023180010BD0D
:10452000637B012B07D10422216863698900591834
:1045300000F08FF8E8E7637B022BF4D0637B032B5A
:10454000E2D121686369C90059180822F0E7002305
:10455000836003600369013B436070471300013AC5
:104560004B4301394A43F0B503600700632314004D
:1045700085B0FA60551C029300230226019503932F
:10458000B54214DA039B002B1DD10324019BA342E7
:104590000BDB21000198FBF763FF00291AD17C6037
:1045A00021000198FBF776FEB86005B0F0BD310040
:1045B0002800FBF755FF002903D1B542E2D10123C2
:1045C00003930136DCE7029B2D19013B0293002B7C
:1045D000D2D1DAE70134D9E7F7B5002443680122E4
:1045E0000093230005680E00C9170191EF17009989
:1045F000A14201DC1000FEBD30000199FBF790FFE5
:104600002A003B00FBF76CFF0134F0E710B50022F5
:1046100000F009F810BD10B500F01BF810BD10B582
:1046200000F020F810BD130010B50A00190000F0CA
:104630002BF810BD30B50024A24201D1002005E0C6
:10464000035D651C0C5DA34201D0181B30BD2C001E
:10465000F2E7002310B59A4200D110BDCC5CC454DF
:104660000133F8E710B5884202D98B18984208D375
:1046700000239A4207D0CC5CC4540133F9E78B5C29
:104680008354013AFBD210BD03008218934200D13B
:10469000704719700133F9E7F0B5054600200F4661
:1046A000079E059C174309D0202905D30127BF0386
:1046B000BA4201D8914201D94220F0BD19462143A6
:1046C0000AD09C42F8D309498C4203D00849A41F60
:1046D0008C42F1D2062BEFD3002D03D0022D01D056
:1046E000032DE9D1032EE7D8F0BD0000FFFF000045
:1046F0007B0C00007CB5069D079C002805D0860732
:1047000005D1460703D4060701D442207CBD002909
:1047100003D0012901D00229F7D10095019400F0BE
:10472000EFFA7CBDFFB587B0109D159E169C0193D6
:104730000295009407A807C81F463346FFF7ACFF51
:1047400000280ED11398149903AA069443C2119815
:10475000129901900095029107A807C83B4600F006
:104760005FFC0BB0F0BD70B51C4613460D46012C26
:1047700003D0022C03D0422070BD022200E01022A0
:104780001946FEF73EF82C70002070BDF0B587B0DA
:104790001C460B46054600A9023101A80C9F0D9E40
:1047A000FFF7E1FF00280ED16846058084828775F7
:1047B000C6750E9901760F994176109981766946F2
:1047C000119801F08FFC07B0F0BD70B586B01446AB
:1047D0001D460A4603466946881C0A9EFFF7C3FF2A
:1047E000002804D1012C04D0022C02D0422006B0B3
:1047F00070BD23462A466946304601F0B9FEF6E709
:1048000010B502F03BF910BDF0B585B084460AA89A
:10481000F0C868468581C68103A80190029700947C
:10482000604602F003FC05B0F0BD10B503F02EF9B0
:1048300010BD10B503F04CF910BD3EB56C46069D99
:1048400020806180A280E3802581684603F086FE97
:104850003EBD000010B503F029FD1E4C4721206825
:1048600049014118097B002909D1A0300079C0070E
:1048700029D003F045FB03F049FA0FF0E9FE00F000
:1048800003F92068014640310A78C9798A4319D171
:104890003E21095C002915D10F490A88120711D55C
:1048A0000922D2061269497A836AC9005918092374
:1048B0001B02C018806D801A00020012814201DACA
:1048C0000BF002FE10BD00F08BFB01F071FF0CF04D
:1048D000C7FDD0E76C050020C000002010B5837F25
:1048E0000122002492024168082B03D942249142FC
:1048F00002D310E0914201D242240CE0014634225E
:104900000648FDF77EFF00F07FF8002801DA482412
:1049100001E000F029F9204610BD0000DC02002073
:104920003EB5174D15482968827F0846A0310A73A5
:1049300000246030047644768476E122C2768022B8
:10494000027702224277302008704C7002AA01A937
:104950006846FDF745FF68460078A22201016846D7
:10496000007A891C00020143684600790003014374
:1049700028681152A03004713EBD0000DC02002006
:104980006C05002070B503F075FC0BF08BF809F096
:10499000A9FE10F073FC03F0BDFE184C1849206806
:1049A000184D4018811001202A68C0021018C166F5
:1049B000616889080167A168890841670EF02CFCCD
:1049C0001D2029688001228B08180287628B42878C
:1049D000A28B4286628C82862046203002783B2061
:1049E0004001081882750021017000F087FA03F079
:1049F0009BF903F023F90FF0B1FE70BDDC0200203B
:104A00000000FCEF6C05002070B50025ED43FCF7BD
:104A1000C7FD01282ED0002318490322888BFF24CC
:104A2000401E10438A7F4D3462438218088B28242D
:104A300060431218488B3024604312180846203017
:104A400040782C24604310180D4A181884184869BF
:104A5000A0420DD10B4884420AD90D69FCF7A0FD94
:104A6000C1B2284608F0EAFA08F018FC401B251AE3
:104A7000284670BDFF23B533CEE70000DC020020DE
:104A800039190000580A0000F8B52C4F3C68206E18
:104A90005C34401C002814D0002529480023C07B2A
:104AA00000283ED00926F6062648002D1CD00021FD
:104AB0000A460B464169521C994204D1002902D092
:104AC00004E00125E9E7204B9A42F2D32160006916
:104AD00060603069A1680002090E000A09060143FE
:104AE000A16000F033F81DE03169A2680902090AEB
:104AF000150E08D0018BC90712D0416921600069E9
:104B00006060E37210E0881A00027D2300121B032C
:104B1000984205DD100E00060843A06000F016F86C
:104B2000F8BD6360002DFBD003CC0BF0F9FBFA203D
:104B30000BF0E6FB39688862F8BD00006C050020C8
:104B4000FC020020000010488813000004490020E7
:104B500008610448012100686030C171704700009D
:104B6000000010486C050020F8B5062632484025A4
:104B70000560324800270780A9050920C00641606A
:104B80002F4A9160016801602E480321046942693F
:104B9000601E08433946401CFDF737FEFCF700FD58
:104BA000C1B2204608F04AFA08F078FB08F082FB10
:104BB000FCF7CEFC244917208881244C2068421938
:104BC00001465770FA20886228201070FCF7A2FC7A
:104BD000012805D12068102240300178114301706E
:104BE000FCF7F4FC012805D12068802240300178D0
:104BF0001143017020680146403002783243027050
:104C00000020C0430866FCF7A6FFFFF789FEFFF708
:104C1000B9FE20680121203001770721417701206A
:104C200002F034FF06F02AF9FFF72EFF0248803821
:104C3000056002210160F8BD80E100E0C0000020B5
:104C400040000048DC020020000010486C050020F5
:104C500038B5184A14682246BA32AE34A378DD0754
:104C600001D001290AD05B070CD501290AD021798E
:104C700049070BD5E17A002905D007E0E0788021CB
:104C80000843E07038BD0121E1725080207941066F
:104C9000090FF7D078210840694608700020487055
:104CA0006A460221422000F04DFB2079872108400E
:104CB000207138BD6C05002038B51048002104680B
:104CC0000846AE3407F062FA694648702079C10799
:104CD00004D001216A46117088432071C0B2810757
:104CE00005D502216A461170FD210840207102217C
:104CF0006A46084600F026FB38BD00006C0500201F
:104D0000FFB50C4678A103C995B001910090002130
:104D100008A801730321C90268464186012108A839
:104D2000734E017435681746AE3512F065FB0028E6
:104D300008D17049306840180AF014F8A8780028A3
:104D400002D0462019B0F0BD0BA81599FCF7F8FB6E
:104D50000028F7D1072010A90871012C05D0022CDA
:104D60000AD0002C0ED04220ECE708A8017B1020CE
:104D7000014308A8017305E011A90BA8FCF7C2FBC9
:104D80000028DFD110A8027901230CA9284601F0E0
:104D9000EFFB00287ED1022229461898FDF731FD4D
:104DA00029886846818115214902018207840126EC
:104DB00086734E2108A881700024C47006710721F3
:104DC0004171867103A902A801F08CF9002861D114
:104DD000022202A91E98FDF714FD082F02D2684690
:104DE000478502E008206946488569460C850B46E0
:104DF00028880AAA098902F0E5F800286DD13E4901
:104E0000684601820227078408A8847103A902A8C2
:104E100001F068F9002860D1022202A91F98FDF76D
:104E2000F0FC68460470694644704F850B4628883C
:104E30000AAA098902F0C6F800284ED108A8007B0A
:104E4000C00723D02C496846C91C0182082101846F
:104E500008A88770047103A902A801F043F900288B
:104E60003BD1FF216846C1718171C1708170417071
:104E70000170447104716946082048850B462888F2
:104E80000AAA098902F09EF8002826D108A8007B0A
:104E9000800600E021E022D52988684681811649F4
:104EA000A53101820684867308A88770C4700471D6
:104EB00007214171847103A902A801F013F90028A8
:104EC0000BD169460E700C854E850B4628880AAAC0
:104ED000098902F077F8002801D0472032E708A8B6
:104EE000007BA87000202DE7626C75656E726721EB
:104EF0006C050020DE060000012A000003480021A6
:104F00000068AE30C1708170704700006C050020F1
:104F100070B50D4B1C68AE342379DD0612D45B07E7
:104F200010D533280ED1E07A02280BD1042010705E
:104F300000205070C9B2022000F004FA2079FB2151
:104F40000840207170BD00006C05002038B5024695
:104F5000174801240068AE30022A1FD0052A03D06A
:104F6000072A07D00B2A20D1084609794088FFF785
:104F70006FFE1AE000790024020600D501248207A2
:104F800003D1C20601D480060FD5084600216A4627
:104F90001170694600F0C2F8044606E081784907BE
:104FA00003D50179FB2211400171204638BD000074
:104FB0006C05002010B509480468AE34E07880071D
:104FC0000BD500200AF0E8FB022000F093F9E0780E
:104FD00001210843FD210840E07010BD6C05002050
:104FE0001FB50E480468AE34E078010612D5A178EA
:104FF000C9070CD0800708D50420694608736846A5
:1050000003F030FA022000F075F90020E07040064D
:10501000400EE070FCF798FA1FBD00006C05002000
:10502000F0B58DB00C4616A9E0C900210891099190
:105030000A910B911599049105A9E0C112A962C9C1
:1050400000930191134601460396029522460120E2
:1050500000F096F80DB0F0BD0949B222096814239A
:10506000525CBA311A4208D0498800050905090D79
:10507000000D814201D101207047002070470000DF
:105080006C05002002780907090F0A43027000200E
:105090007047000030B50E4885B005682C46AE3527
:1050A0002879BA34400711D5E87A01280ED11521A4
:1050B0004902684641800121017060886B46054ABB
:1050C00000F09EFA002801D10220E87205B030BD40
:1050D0006C050020FFFF00007CB50446E1200D4672
:1050E000800005F0E9FC0BA103C90090019168461E
:1050F00002F0AEFF01200BF0E3F9002801D04720B9
:105100007CBD2078202108432070092028700020D1
:105110007CBD00001F0200000000000030B5174BEE
:10512000047A1B68C268AE331B799D06AD0F04D1AB
:105130000078042801D000200BE0012030BD401C85
:10514000C0B2155C012D08D01518203DED7F281840
:10515000C0B2A042F3D3087830BD401CDD07012463
:10516000C0B2002D02D0105CC00703E09B07F2D54F
:10517000105C80070028EED00C70ECE76C05002076
:10518000FFB595B00E46054620210CA8FFF73EFA64
:1051900000200490564800270468681EAE34042896
:1051A00002D8A078C0070BD0062D02D0002D0AD05F
:1051B00002E0A078800703D5E0784006800E0AD090
:1051C000462019B0F0BDA0788007F9D0E0784006FD
:1051D000800EF5D00FE0002D0DD0012D20D0022D36
:1051E00028D0062D33D0032D33D0042D37D0002EF8
:1051F0003BD04220E5E700200AF0CEFA0028E0D1BB
:10520000E078800708D5042069460873684603F0F3
:1052100029F9022000F06EF80120E0700020D0E7AC
:10522000012EE6D0042EE4D01F980028E1D10627F5
:10523000042008E0012EDCD0042EDAD01F980028CC
:10524000D7D105270220E0700120049010E0402013
:105250000DE0022E01D0032ECBD1082007E0012E55
:1052600001D0042EC5D1102001E004272020E070D9
:1052700000230BAA19461E9809F0D6FB030002D0A2
:1052800000F0E0F832E01022002107A8FDF7BDFA97
:1052900007A86C46279B269A1F990FC42B463046B9
:1052A000189A179900F088F80300E9D108A8017B43
:1052B000C170259803AC049B289A29990FC422AB8E
:1052C00007CB02920091019039460CA8209B219AAD
:1052D00000F0C2F80300D3D107A80AF071FD030063
:1052E000CED101200AF058FA0300C9D1184668E768
:1052F0006C05002010B50446C1061148006803D5AE
:105300001522BF210C4006E01B2189014118497E6E
:10531000C90710D012222107890E08181121C901CE
:105320004018C06F002321460FF064FA010004D03A
:1053300020460FF04BFA002010BD072010BD0000E2
:105340006C050020F8B5891ECDB20646A81C0321C5
:105350000843401C8308174817460068F10603D528
:105360001C22BF210E4008E01B2189014118497E03
:10537000090601D40020F8BD19223107890E08184A
:105380001121C9014018C06F31460FF033FA0400F3
:105390000ED03978217179786171A5712A46B91CCE
:1053A000E01DFDF72EFA214630460FF00FFAE1E737
:1053B0000720F8BD6C050020F8B5204B204D1B6878
:1053C00001265B19069CB6030093002814D004281C
:1053D00012D0022813D0032811D006252B4601280D
:1053E00010D00F4617430DD0914203D8202901D386
:1053F000B2420AD94220F8BD30256023EFE7A0254C
:10540000F023ECE72580638001E021806280207139
:105410000798A071089820720998002805D00146C5
:10542000204606220930FDF7ECF90720607100984C
:105430002030807B60710020F8BD00006C050020EA
:1054400008090000034881220068A030417C114017
:10545000417470476C050020F8B505463D481E466E
:105460000068079F0024AE301346002905D00222B1
:105470002A7001226A70A9700324002E10D080784F
:105480008006800F0CD13019401C1F2852D82E5591
:10549000641C281932461946FDF7B3F9A019C4B2A5
:1054A000002F0DD03819401C1F2843D82F55641CDD
:1054B000E4B228193A460699FDF7A3F9E019C4B2F7
:1054C0006846008C00281BD06846808C002817D0C6
:1054D000601D1F282ED805202855641CE0B212211B
:1054E0002954401CC4B228190646022208A9FDF717
:1054F00088F9B01C022209A9FDF783F9241DE4B242
:105500000C98002810D0E01C1F2813D80220285522
:10551000641CE0B20A212954401CC0B22918401C66
:10552000C4B208460AF0B2FE0B9800280CD000194D
:105530001F2801D94220F8BD28190B9A0A99FDF7B6
:1055400060F90B982018C4B2214628460AF094FB53
:10555000F8BD00006C05002000B500F009F8002837
:1055600005D0852201699201114200D0002000BDC2
:1055700010B50D4900050B680521490259188A69C3
:105580000021000DA0331B7B0AE04C01145B2405B5
:10559000240D844202D14801801810BD491CC9B2B3
:1055A0008B42F2D8002010BD6C050020FEB58C683F
:1055B000CD88267B012E01D00020FEBD4126052D81
:1055C00001D01E7019E0247C0A2C00D01E70002A25
:1055D0000DD08968052268460C31FDF712F96D1E61
:1055E00000AAA9B232200132FFF792FC05E0008840
:1055F0000A460146022000F0FDF94120FEBD0000F0
:10560000FFB589B0074646251E781022991C05A8CB
:10561000FFF701F8012E04D0022E02D042200DB077
:10562000F0BD3846FFF798FF040024D02022394609
:10563000002009F035F807001CD005AD04960FCD09
:105640006D460FC5394620460B9B0A9A09F0B1F901
:10565000050004D00021384609F07EF80BE0012156
:1056600020694903084320610448A061384600F0DE
:1056700059FC00E064252846D1E70000815604105B
:1056800010B5502100F001F810BDF0B58BB00D46FB
:1056900004460020694608710490E669002E16D081
:1056A000A806800F03D02088FFF7D6FC049001AB3A
:1056B00031462046049AFFF779FF412865D0E80774
:1056C00008D021883246022000F018F95DE0412020
:1056D0000BB0F0BD680705D521883246022000F0E6
:1056E000D3F852E0A80739D5F0886188814205D9FE
:1056F00021883246022000F08DF846E020694106FC
:1057000004D5012189020843206180E021882022FC
:10571000002008F0C5FF05001ED021883246022077
:1057200000F078F8A068801C00F0D0F96188401E75
:10573000401886B2A06800F0C9F9024633462946EF
:10574000204609F012F9284600F0ECFBA06831462B
:10575000801C00F0B7F954E04520B9E7E80614D5FD
:10576000F088412702280ED9B168801E4D7B80B297
:10577000854201D9012016E0002D04D02946FAF710
:1057800085FD00290FD0684607710120216940037B
:1057900081432161049800282DD001AA01213120E4
:1057A000FFF7B6FB2DE002900220002703901EE0D9
:1057B000049800280DD0039805AB001D81B22A463D
:1057C000304608F02DFF05AA29463320FFF7A0FB3D
:1057D00007E003980096C2B22B462188022000F011
:1057E000C7F80398401980B27F1CBFB2039002989B
:1057F0008742DDD3C9E7684602792188022000F09C
:1058000035F90121E06908F0A7FF0020E0610020E0
:105810005EE70000F7B5064690790321401EC5B249
:10582000E81C0843401C8308164817460068F10628
:1058300003D52C22BF210E4008E01B21890141180D
:10584000C97E090601D40020FEBD29223107890E38
:1058500008181121C9014018C06F31460EF0CAFF67
:1058600004000DD00198A080A5712A460521384674
:10587000E31D08F0D5FE214630460EF0A7FFE2E713
:105880000720FEBD6C050020F7B506469079032180
:10589000401EC5B2E81C0843401C83081648174642
:1058A0000068F10603D52D22BF210E4006E01B2122
:1058B00089014118097FC90719D02A223107890EA9
:1058C00008181121C9014018C06F31460EF092FF2F
:1058D00004000ED00198A080A5712A460521384603
:1058E000E31D08F09DFE214630460EF06FFF0020BC
:1058F000FEBD0720FEBD00006C050020F7B5064682
:1059000090790321401EC5B2E81C0843401C83085F
:10591000164817460068F10603D52B22BF210E401A
:1059200008E01B2189014118C97E490601D40020E5
:10593000FEBD28223107890E08181121C90140181F
:10594000C06F31460EF056FF04000DD00198A080C4
:10595000A5712A4605213846E31D08F061FE21465F
:1059600030460EF033FFE2E70720FEBD6C05002055
:10597000FFB59B1E0646DDB2681D03210843401C8F
:1059800083081B4881B000681746F10603D536220C
:10599000BF210E4009E01B2189014118497F890779
:1059A00002D4002005B0F0BD33223107890E08185B
:1059B0001121C9014018C06F31460EF01BFF0400D1
:1059C00014D00298A0800A98234680682A4608309E
:1059D000C0190079E0802572B91D09330A9808F0D2
:1059E0001FFE214630460EF0F1FEDAE70720D9E728
:1059F0006C050020F8B5044690680F460146154630
:105A0000467B0E3102226846FCF7FBFEA8680223A3
:105A1000057C1548E10603D53522BF210C4009E07D
:105A20001B22016892018918097F090601D4002010
:105A3000F8BD322221070068890E08181121C9011A
:105A40004018C06F21460EF0D5FE010009D08F80AE
:105A50008E716A4612880A818D7220460EF0B6FE5B
:105A6000E5E70720F8BD00006C05002070B50E4684
:105A700001230446C10612481546006803D53422A6
:105A8000BF210C4006E01B2189014118497FC9074D
:105A900011D031222107890E08181121C90140189F
:105AA000C06F21460EF0A6FE010006D08E808D71DB
:105AB00020460EF08BFE002070BD072070BD000058
:105AC0006C0500200170090A417070470178407828
:105AD000000208437047F8B5069C1F461546064667
