:020000041004E6
:1000000000600020B9140410512A0410572A04106B
:10001000AA5555AA45554C420000000000000000BA
:100020000000000000000000000000005D2A041035
:10003000000000000000000041120410632A0410B8
:1000400043120410451204100000000000000000DC
:10005000752A0410471204106B2A0410531204105E
:100060000000000000000000000000000000000090
:100070000000000055120410571204105912041009
:1000800000000000491204104B1204104D1204101D
:100090004F120410511204105B120410852A041030
:1000A0000000000000000000000000000000000050
:1000B0000000000000000000000000000000000040
:1000C000EFF31482EFF30981002080F31488BFF36B
:1000D0006F8FF0B543464C4655465E466746F8B4CA
:1000E000164CEFF30883236006B4154C2068154CBA
:1000F0002060154C2068154C2060154C2068154C6C
:100100002060154C276800202060BFF34F8F30BF60
:1001100027600A4C246884F3088882B003BCF8BCCA
:100120009846A146AA46B346BC46F0BC04BC80F340
:10013000098881F31488BFF36F8F104708000020EF
:1001400004ED00E0F003002024ED00E0E4030020D3
:1001500000E200E0F4030020080020400023C25C1D
:100160000133002AFBD1581E7047000000224308CB
:100170008B4274D303098B425FD3030A8B4244D36F
:10018000030B8B4228D3030C8B420DD3FF220902B1
:1001900012BA030C8B4202D31212090265D0030B70
:1001A0008B4219D300E0090AC30B8B4201D3CB0366
:1001B000C01A5241830B8B4201D38B03C01A5241A8
:1001C000430B8B4201D34B03C01A5241030B8B42AA
:1001D00001D30B03C01A5241C30A8B4201D3CB0295
:1001E000C01A5241830A8B4201D38B02C01A52417A
:1001F000430A8B4201D34B02C01A5241030A8B427D
:1002000001D30B02C01A5241CDD2C3098B4201D394
:10021000CB01C01A524183098B4201D38B01C01A12
:10022000524143098B4201D34B01C01A5241030989
:100230008B4201D30B01C01A5241C3088B4201D338
:10024000CB00C01A524183088B4201D38B00C01AE5
:10025000524143088B4201D34B00C01A5241411A0C
:1002600000D20146524110467047FFE701B5002019
:1002700000F006F802BDC0460029F7D076E77047C7
:100280007047C046437802781B021A438378C078CF
:100290001B041343000618437047C046030A4B7003
:1002A000030C8B70030E0870CB70704703005A78F4
:1002B0000078120202439878197900040243D87832
:1002C000000610435A7912020A43997909040A4335
:1002D000D979090611437047030A5370030C9370D0
:1002E000030ED3700B0A53710B0C93710B0E10702D
:1002F0001171D3717047C04610B50AF09BF810BD5C
:1003000010B509F0B1FC10BD10B509F067FF10BDC4
:1003100070B584B008AC248809AD2D880BAE368842
:1003200003960A9E0296019500940AF073F904B0B0
:1003300070BD70B584B008AC20CC24780AAE367895
:100340000296019400950AF0A7F804B070BD10B5AC
:1003500003F05CFD10BD10B50BF0FEFB10BD0120DD
:10036000704710B503F042FB10BD10B503F0BCFCA4
:1003700010BD10B50DF0A6FC10BD10B50BF0ECFAD9
:1003800010BD10B50AF060FE10BD10B503F014FDED
:1003900010BD10B503F018FD10BD10B507F0E2FC5C
:1003A00010BD10B510F0D8FB10BD10B510F072F9EB
:1003B00010BD10B510F0CAFC10BD10B510F092F9C8
:1003C00010BD10B50AF064FA10BD10B507F0A0FA20
:1003D00010BD10B50AF080FC10BD10B50AF0A8FAE7
:1003E00010BD10B50AF0C2FB10BD0120704710B55A
:1003F00006F06EFB10BD10B512F0A4FC10BD10B5D8
:1004000012F072FC10BD10B512F052FC10BD10B508
:1004100012F074FE10BD0120704710B512F0EEFE10
:1004200010BD10B512F0ACFE10BD10B511F062F9A0
:1004300010BD10B511F07EF910BD10B511F00CFA19
:1004400010BD10B511F0D2F810BD10B511F0EEF8D6
:1004500010BD10B511F014F910BD10B511F080F9F0
:1004600010BD10B511F09EF910BD10B510F070F967
:1004700010BD10B510F03FF910BD10B510F08FFC95
:1004800010BD10B510F0A4FB10BD000070B5050044
:100490000C00534B984218D0524B984215D0524BF7
:1004A000984212D0514B98420FD0514B98420CD0E9
:1004B000504B984209D0504B984206D04F4B98422F
:1004C00003D0BB214E4802F00DFEA368102B01D0D3
:1004D000002B62D1E368013B4A4A934262D8236908
:1004E000402B01D0002B62D16369802B01D0002BFF
:1004F00062D1A369002B0BD080225200934207D017
:100500000132FF32934203D0C0213D4802F0EAFDA0
:10051000E369002B0BD08022D200934207D08022C7
:100520001201934203D0C121354802F0DBFD236A5A
:10053000202B01D0002B44D1636AC0229201934248
:1005400009D080229201934205D080225201934229
:1005500001D0002B3AD1A36A8022D201934201D06C
:10056000002B38D12B68284A1A40A368216A0B4314
:1005700021690B4361690B43A1690B43E1690B439B
:10058000616A0B43A16A0B4313432B60E3686B6002
:100590002368AB606368EB6070BDBC21184802F053
:1005A000A1FD97E7BD21164802F09CFD97E7BE210B
:1005B000134802F097FD97E7BF21114802F092FD22
:1005C00097E7C2210E4802F08DFDB5E7C3210C4824
:1005D00002F088FDBFE7C421094802F083FDC1E7AE
:1005E000080000A01C0000A0300000A0440000A0F3
:1005F000580000A06C0000A0800000A0940000A0A3
:10060000EC6E0510FEFF00000F80FFFF002303606B
:1006100043608360C360036143618361C3610362BC
:10062000436283627047000070B504000D00184BF0
:10063000984219D0174B984216D0174B984213D0B6
:10064000164B984210D0164B98420DD0154B98423D
:100650000AD0154B984207D0144B984204D016216B
:10066000FF31134802F03EFD012D04D98B214900D2
:100670000F4802F037FD002D04D1226801239A4370
:10068000226070BD2268012313432360F9E7C0464E
:10069000080000A01C0000A0300000A0440000A042
:1006A000580000A06C0000A0800000A0940000A0F2
:1006B000EC6E051070B504000D0016001B4B98423F
:1006C00019D01B4B984216D01A4B984213D01A4B94
:1006D000984210D0194B98420DD0194B98420AD02D
:1006E000184B984207D0184B984204D07021FF3124
:1006F000164802F0F7FC0E232B420CD0012E04D931
:100700007221FF31114802F0EDFC002E09D123685F
:10071000AB43236070BDB82149000C4802F0E2FCF5
:10072000ECE723681D432560F4E7C046080000A0FD
:100730001C0000A0300000A0440000A0580000A051
:100740006C0000A0800000A0940000A0EC6E0510DA
:1007500010B5041E06D0A0231B061B68234207D138
:10076000002010BDAC21FF31024802F0BBFCF2E7D3
:100770000120F6E7EC6E051010B5041E03D0A0238F
:100780001B065C6010BDF5214900024802F0AAFC7E
:10079000F5E7C046EC6E0510024B1B8ADB07FBD564
:1007A0007047C0460000104010B504007F2805D8EF
:1007B0000A4B1A680A4B9A4205D010BD59210948C4
:1007C00002F090FCF4E7084B3F221A816406240CE7
:1007D0009C612E3A1A80FFF7DFFFEEE7140000203D
:1007E000CCBCECFC246F05100000104070B5040078
:1007F0000D000D4BC2180D4B9A4205D80C4B1A68D0
:100800000C4B9A4205D070BDA6210B4802F06AFC41
:10081000F4E70A4B3F221A81A4089C611D640C3A3C
:100820001A80FFF7B9FFEEE70000FCEFFFFF0300BF
:1008300014000020CCBCECFC246F0510000010401C
:1008400070B5040003689B0133D02379002B0BD0D3
:10085000062B09D0012B07D0042B05D0052B03D084
:100860007B21574802F03EFCA379012B03D97C2160
:10087000534802F037FC6379012B03D97D2150489E
:1008800002F030FC2368DB0402D52379062B15D057
:1008900023689B0402D52379062B14D020790028E5
:1008A00016D18022D205536821688B435360002300
:1008B00025E07A21424802F015FCC6E78021404835
:1008C00002F010FCE4E781213D4802F00BFCE5E773
:1008D0000628ECD18022D205536821680B4353606F
:1008E0000020E4E78026F605F26A99000F258D4086
:1008F000AA4305008D402A43F2620133DBB2192B73
:100900003CD819002268DA40D207F6D5072BE9D97E
:100910001A00083AD2B2072A16D91A00103AD2B2EF
:10092000072A1ED9172BE8D98025ED052A8F12B288
:10093000183989000F268E40B24312B206008E404D
:10094000324392B22A87D8E78026F605326B0839FF
:1009500089000F258D40AA4305008D402A4332634C
:10096000CBE78026F605726B103989000F258D4084
:10097000AA4305008D402A437263BEE76379012BC9
:100980000FD08022D205D36821688B43D360A3792E
:10099000012B0DD08022D205936821688B43936090
:1009A00070BD8022D205D36821680B43D360EEE787
:1009B0008022D205936821680B439360F0E7C0461C
:1009C0005C6F051010B50400830103D08023DB05A4
:1009D000DC6310BDA6214900014802F083FBF5E766
:1009E0005C6F051010B50400830103D08023DB0584
:1009F0001C6410BDAE214900014802F073FBF5E70D
:100A00005C6F051010B5013A835C8C5C1B1B01D137
:100A1000002AF8D1180010BDC0231B0618688022D8
:100A20000100114319601968914319607047C02390
:100A30001B061868012201001143196019689143CF
:100A400019607047C0231B0618688007C00F7047E5
:100A5000064B1B78002B07D1054B1B68002B01D0E0
:100A6000012002E0002000E0012070471003002078
:100A7000000400C0F0B591B005000C0008A8374B89
:100A800002001900C1C9C1C2C1C9C1C241C941C224
:100A90006A46203343CB43C243CB43C203CB03C29A
:100AA0006B1EDBB2022B08D8012D0CD0022D20D0FA
:100AB000032D33D0012011B0F0BD0E21FF312848A5
:100AC00002F010FBF0E7202269462000FFF79AFFB2
:100AD000002806DB234A137804210B4313700120FE
:100AE000E9E7204A137804218B4313701E49002341
:100AF0002EE0202208A92000FFF784FF002806DB53
:100B0000184A137801210B4313700120D3E7154ACB
:100B1000137801218B4313701449E8E7202208A9B8
:100B20002000FFF76FFF002806DB0E4A1378022132
:100B30000B4313700120BEE70A4A137802218B434E
:100B400013700B49D3E79A00105988500133DBB278
:100B5000072BF8D900230B620020ACE7486E051084
:100B6000946F0510100300206C0400C0900400C0B6
:100B7000B40400C070B505000C00431EDBB2022BAC
:100B800007D8012D0DD0022D0ED0032D07D0012046
:100B900013E04E21FF31094802F0A4FAF1E70849B9
:100BA00000E00849002305E00749FBE7CA5CE2547E
:100BB0000133DBB21F2BF9D9002070BD946F0510F3
:100BC000B40400C06C0400C0900400C070B5040000
:100BD0000D000D4B18420CD0012D03D988210B4874
:100BE00002F080FA012D09D0094A136AA343136267
:100BF00070BD8721054802F075FAEDE7044B1A6ACB
:100C000014431C62F4E7C0469F3F0F00CC6F0510F1
:100C1000000090402D4B1B7ADBB22D4A128992B214
:100C2000002B17D1082A15D9812A13D80921114080
:100C3000092934D011211140112932D0212111402C
:100C4000212930D04121114041292ED0812111404C
:100C500081292CD0002B05D10221FF311000084042
:100C6000884226D0002B04D11A491000084088423F
:100C700021D0002B03D10521114005291DD0002BC7
:100C800003D103210A40032A19D0022B19D0042BC7
:100C900019D0082B01D000200CE003200AE0062028
:100CA00008E0072006E0082004E0092002E00A200E
:100CB00000E00B2070470C20FCE70520FAE7042039
:100CC000F8E70120F6E70220F4E7C0460000904074
:100CD000000010480104000010B50400012803D9E9
:100CE0005F21084802F0FEF9002C05D1064B196B74
:100CF00001229143196310BD034A116B01230B4379
:100D00001363F8E7087005100000304070B5040068
:100D10000368013B7A4A934200D9B1E02379032B5F
:100D200000D9B2E06379032B00D9B3E0A379012B9A
:100D300003D99621734802F0D5F9E379022B00D943
:100D4000ADE0237A032B00D9AEE0637A032B00D900
:100D5000AFE0A37A012B03D99A216A4802F0C2F9C5
:100D6000694B1B6B1B0700D5A8E023681901674876
:100D7000FFF7FCF9C30999B2634A9184DB01644A25
:100D80001340C01A0130400880B23F2802D93F38D2
:100D90003F231840C0B25C4B282298542079253A52
:100DA0002C25595D104040016026B143014359553F
:100DB0006079197F02405201B1430A431A77A07942
:100DC0000122595D1040C000583EB14301435955BE
:100DD000A079197F0240D200B1430A431A77E37920
:100DE000002B00D170E0022B00D177E0464B2C2283
:100DF000985C022630439854985C04252843985404
:100E0000197F314319771A7F2A431A77227A0121F1
:100E1000012002403C4B1D6B0A4052023D4E3540C2
:100E20002A431A63227A520802401D6B0A401202BA
:100E3000394E35402A431A63627A02401D6B0A40DC
:100E40009203364E35402A431A63627A52080240B2
:100E50001D6B1140C903324A154029431963A17A19
:100E60002C269A5D014009011025AA430A439A5590
:100E7000A17A1A7F08400001AA431043187770BD79
:100E80009321204802F02EF948E794211D4802F0F2
:100E900029F947E795211B4802F024F946E79721F5
:100EA000184802F01FF94CE79821164802F01AF989
:100EB0004BE79921134802F015F94AE72368D90056
:100EC0001248FFF753F955E70F4B2C201A5C02210B
:100ED0008A431A541A7F8A431A7797E70A4B2C22BF
:100EE000995C022529439954995C042081439954C3
:100EF0001A7F2A431A771A7F82431A7786E7C046F9
:100F00003F420F0008700510000030400000127AC8
:100F100080FF7F00FFFDFFFFFFFEFFFFFFBFFFFF22
:100F2000FF7FFFFFE1235B02036003220271427136
:100F300000238371C3710272437283727047000091
:100F400070B504000D000D4B184201D1002803D1EB
:100F5000FC210B4802F0C6F8012D03D9FD210848F9
:100F600002F0C0F8002D04D1064A138FA343138763
:100F700070BD044A138F1C431487F9E70DE0FFFF8F
:100F8000087005100000304010B50400064B984270
:100F900004D8E405E40D054B1C8010BD1221FF317F
:100FA000034802F09FF8F4E7FF0100000000304022
:100FB00008700510024B1888FF2318407047C04680
:100FC0000000304010B5040001281AD0082818D0BD
:100FD000102816D0202814D0402812D0802810D0F5
:100FE000114B98420DD0114B98420AD0104B9842A9
:100FF00007D0104B984204D05621FF310E4802F022
:1010000071F8002C05DB0D4B1B8B234207D1002010
:1010100010BD0A4B5B68234203D00120F8E7012092
:10102000F6E70020F4E7C0460800008001000080D9
:1010300002000080040000800870051000003040AD
:1010400010B50400084B184201D1002804D1C82172
:101050004900064802F046F8054B9B8F234201D118
:10106000002010BD0120FCE70DE0FFFF0870051017
:101070000000304010B50400064B184201D1002892
:1010800004D1D7214900044802F02CF84423034A34
:10109000D45210BD0DE0FFFF087005100000304075
:1010A00010B50400062809D807493422885C0723B4
:1010B00023400724A0431843885410BDE22149006F
:1010C000024802F00FF8EFE700003040087005100A
:1010D00010B5040006280AD808493422885C072382
:1010E0002340DB003824A0431843885410BDDA2184
:1010F000FF31034801F0F6FFEEE7C0460000304044
:101100000870051070B505000C00431EDBB2022B01
:101110000DD8012C03D90B490B4801F0E3FF012C3A
:101120000AD00A4948228B5CAB438B5470BD0849F6
:10113000054801F0D7FFECE7044948228B5C1D43CA
:101140008D54F3E71E0200000870051000003040C7
:101150001D020000F8B504008378012B03D95A2141
:10116000274801F0BFFF6378032B0DD8A378002B2D
:101170000FD1227853091F21114001228A402033C8
:101180009B0020495A50F8BD5B211D4801F0AAFF81
:10119000ECE7227853B26678002B1ADB9B08194DD6
:1011A000C0339B00585903211140C900FF2217008A
:1011B0008F40B843B60132408A4002435A512278E8
:1011C00053091F21114001228A409B000D495A50AA
:1011D000D9E70F231340083B9B0806339B000A49BD
:1011E0008C4663445D6803211140C900FF20020062
:1011F0008A409543B6013040884028435860DEE776
:101200004070051000E100E000ED00E010B50400C2
:10121000012803D97721084801F064FF002C05D18B
:10122000064A136904218B43136110BD034A1369F5
:1012300004210B431361F8E74070051000ED00E056
:1012400070477047704770477047704770477047E6
:1012500070477047704770477047704710B582B04D
:101260001722214B9A810022002119E01E4B0120F8
:101270001883002018611C4B1B8B9BB2002BFAD0EB
:10128000194B1B690193019896231B02984205D8BC
:10129000012103E0019CE41A1DE00193013292B2A6
:1012A00002291ED0FA235B009A421AD80029DDD009
:1012B0000129F3D10C4B01201883002018610A4B3F
:1012C0001B8B9BB2002BFAD0074B1B690198834202
:1012D000E0D9019C1C1B0198800A8442DDD80221C0
:1012E000DBE702B010BDC0460000104810B5002377
:1012F00004E0134AD25C01329B18DBB21900104A99
:10130000D25C002AF5D1DA1C1F2A18DC0C4B022013
:101310005854481C21241C54881C193C1C5400207F
:10132000985459180904090C80235B02194390232F
:10133000DB05D9609023DB05DB68DB03FAD410BD45
:101340001403002030B5002304E0104AD25C0132BF
:101350009B18DBB219000D4AD25C002AF5D1DA1CC9
:101360001F2A09DC094B02245C544C1C35251D55F1
:101370000231585400219954054B02221A7033321D
:101380005A7098700022DA7030BDC04614030020F5
:10139000E803002000280ED0124B1B041B0C8022F7
:1013A000520213439022D205D3609023DB05DB6801
:1013B000DB03FAD470470B4B9A78D2B299780420A9
:1013C000814399701B041B0C802149020B4390211F
:1013D000C905CB609023DB05DB68DB03FAD4014B46
:1013E0009A70E7E7E803002010B584B00B2827D0F7
:1013F00001AC200000F004FA63781B01A2781343CB
:10140000112B0ADD0121114B1B681B0707D4002992
:1014100016D00120FFF7BEFF12E00021F3E7902372
:10142000DB051A6928320A4B1B689B1A1B02002B2A
:1014300006DD002906D1064B1A689023DB055A60A9
:1014400004B010BD0120FFF7A5FFF4E7C0000020A5
:101450001800002010B582B0144A137A01210B4302
:1014600013720022124B1A600024022C0AD8FFF7D4
:10147000D1FB6B46D87107331B78002B02D10134A6
:10148000E4B2F2E76B4607331B78DBB2052B02D8D8
:10149000012002B010BD6B46D879C0B2FFF7A4FF9F
:1014A0000122044B1A70FEF734FEFEE700002040D4
:1014B000140000200C00002010B5FFF7CBFF01281E
:1014C0000FD0154B83F3088801F0E2FD10BD1168C1
:1014D00019600433043211498B42F8D3104B114A7E
:1014E00006E0114B114AF6E7116819600433043223
:1014F0000F498B42F8D30F4B02E000221A600433ED
:101500000D4A9342F9D30D4B02E000221A600433D6
:101510000B4A9342F9D3D4E7006000201C06002058
:101520000800002070740510900500209C740510C0
:1015300034000020C0000020CC020020CC0200209B
:101540009005002070B58AB004000D0054486B4629
:10155000020043CA43C343CA43C312781A7007A8A0
:1015600000F04EF9002C40D044236A4693734D4A54
:10157000137A01210B4313726C236A46D372513BD9
:101580001375494B1B68190C484A914250D0484B7F
:101590001B68190C454A914258D0464B1B68190CE0
:1015A000424A914260D06B46DB7A042293436A46FA
:1015B000D37207AA53781B0192781343112B60DC76
:1015C0006B461B041B0C8022520213439022D2054F
:1015D000D3609023DB05DB68DB03FAD407AA5378DA
:1015E0001B0192781343112B57DC334B1B8B9BB29F
:1015F000002BFAD0304B01221A8316329A81002236
:101600001A61002D0AD09023DB051A699023DB05AF
:101610001B695340DB06F9D5FFF720FE002C02D0F2
:101620001522264B1A70264A264B1A600AB070BD46
:101630006A46D27D70218A436946CA75CA7D1B01FC
:1016400070210B4013436A46D375A0E76A4652796E
:1016500030218A4369464A714A791B0130210B4087
:1016600013436A46537198E76A46D27D03218A4341
:101670006946CA75CA7D03210B4013436A46D37578
:1016800091E76B46DB7D04221343DBB26A46D375D8
:10169000D07DC0B2FFF756FE92E7FFF727FEA4E722
:1016A000886E051000002040E807001055AA0000D1
:1016B000E4070010B0070010000010480000C04010
:1016C000CCBCECFC14000020F0B5D6464F46464694
:1016D000C0B50822434B9A80434A136A434D2B40BE
:1016E000C021090489460B431362136A1B021B0ABB
:1016F000C02109060B4313623D4BC0229200904665
:101700009A58FF20844682433F388246024340462F
:101710001A501A58374E3240C02000020243474642
:10172000DA51C12292009F586446A743544627438A
:101730009F509C582700374007439F509C582700D4
:101740002F409F509C582402240A27000F439F508B
:10175000083290469A583240024344461A511A5968
:101760002A404C46224344461A511A591202120A80
:101770000A431A51C422920090469A5832400243BA
:1017800044461A511A592A404C46224344461A519B
:101790001A591202120A0A431A51C52292009C5881
:1017A00027006446A7433C00574627439F509F5855
:1017B0003E4030439850985805404C462C439C502E
:1017C00098580002000A0143995001210120FFF7B7
:1017D000B9FE094A094B1A6262B61CBC904699468A
:1017E000A246F0BD0000104000ED00E0FFFF00FF4A
:1017F00000E100E0FF00FFFF66000E0000009040E7
:101800000F4AD3691B061B0FD9B24370D3691B075C
:101810001B0F83700B4B1B6843600B4A93420BD02A
:1018200001230370002901D101234370074B9B8AD8
:1018300001339B008360704702230370F2E7C046C8
:10184000000090402800904041A00002000010409D
:10185000F0B585B007000E00150001AC2000FFF7C1
:10186000CFFF23783B7063783370A3782B7005B07B
:10187000F0BD10B501F092FD10BD10B501F0A9FD4D
:1018800010BD10B501F07BFD10BD000000B583B0A8
:10189000FFF7C0F96B46D87107331B780B2B19D0B3
:1018A0000F4B1B881B0715D59023DB051A690D4BC1
:1018B0001B689B1A1B021B12DA179B185340202B24
:1018C00008DC9023DB051A692D329023DB051B69A8
:1018D0009A42FAD21522044B1A7003B000BDC046DA
:1018E000C0000020180000200000C040F0B5DE4617
:1018F00057464E464546E0B5C24CA54407004B91BD
:1019000089A8FFF77DFFC04B1D7AEBB20093BF4B58
:101910009E88B3B29B46BE4B1B689A46002309E0E3
:101920001A00C0329200BA495058990081AA8850D2
:101930000133DBB2072BF3D9B64B1B689946B64B84
:101940001B6A02938023DB051A6803925A6804928B
:101950009A680592DA6806921A6907925A6908929B
:101960009A690992DA699046DA6A0A921A6B0B92BE
:101970005A6B0C921A8F92B20D925B6C0E93A74B1E
:10198000DA680F921A7FD2B210929A8C92B21192A8
:1019900028229A5CD2B212922C229A5CD2B2139272
:1019A0001A6B149234229A5CD2B215921A8F92B2A8
:1019B000169248229A5CD2B2179250229A5CD2B206
:1019C000189254229A5CD2B2199258229A5CD2B2DE
:1019D0001A925C229A5CD2B21B9260229B5CDBB2B0
:1019E0001C938F4B1A681D925A681E921A7CD2B2B1
:1019F0001F921A7DD2B2209224229A5CD2B22192F6
:101A00001A8D92B22292DA6A23921B8E9BB2249391
:101A1000002125E00B05834A944663441C688A0034
:101A20007FA814505C687DA814509C8B7BA88450C0
:101A30001C8C79A884509C8C77A884501C8D75A828
:101A40008450DC6A73A814504C201C5A71A884502E
:101A50001C6D6FA81450986D6DABD0500131C9B298
:101A60000129D7D9B0231B061B6825936E4B5A68F2
:101A700026929A6827921A8A92B228929A8A92B2E9
:101A800029929A692A921A7FD2B22B921A8E92B216
:101A90002C925A6B2D929A6B2E92DA6B2F921A6CB3
:101AA00030925A6C31929B6C3293604B9A8892B20E
:101AB00033921A8992B234921A7CD2B235921A7D3C
:101AC000D2B236921A8B92B237921B7FDBB2389326
:101AD000574B9A8892B239921A8992B23A921A7CEA
:101AE000D2B23B921A7DD2B23C921A8B92B23D9204
:101AF0001B7FDBB23E934F4B1A683F925B6840936B
:101B00004D4B1A6841921A7AD2B24292C022120107
:101B10009B58002B03D1494B0193002216E0002370
:101B20000193FAE7900081188B0045498C46634485
:101B30005C685DA944501C6865A944509C6855A91F
:101B40004450D9684DABC1500132D2B2072AE9D90D
:101B50008123DB055A6843921A7BD2B244925A8B96
:101B600092B245921A8B92B246925A6A47929A6AF8
:101B700048921B889BB24993C0231B069B684A93DB
:101B8000032F2FD02F4B1C68503C2F4B1C60002381
:101B90002D490A6840CA9D002C482E500133DBB203
:101BA0000A60132BF4D989AA53781B019278134346
:101BB000112B1FDC9023DB055A68254B1A60124A53
:101BC000137912788021C9050968490A4A4093436C
:101BD00042D08D239B009D443CBC90469946A24632
:101BE000AB46F0BD9022D2055168C0239B050B4344
:101BF0005360C7E70022174B1A600020FFF7CAFBAB
:101C0000D8E7C046CCFDFFFF000020400000104098
:101C100000E100E020ED00E00000904000003040D6
:101C2000000040400000A0400000F0400000D04014
:101C30000000E04010E000E00000704051E5CC1AE8
:101C4000080000A000000410F8030020FC0300209E
:101C500018000020140000200120FFF7D7FAFEF73B
:101C60002FFA0020FFF7D2FADC4B1B78002B57D15C
:101C70000133FF33DA4AD3585B0617D480235B0065
:101C8000D358D84A12685340D749486AD749096897
:101C900088421CD0D64B19680909CA1CD54B9A42F8
:101CA0002FD8D34B1B681B099A42FAD889AA5378BC
:101CB0001B0192781343112B2BDC032F00D088E7F4
:101CC0009022D2055368CC490B40536081E78021B4
:101CD0004900C34841588A4202D002681A42D9D109
:101CE000C14B5A68C54B1B685A40D200D2D4BE4A79
:101CF000526853405B01D9D5C14B1B689B07D5D5B2
:101D0000C8E7BB4B1B681B09BE4A8A189342F8D12F
:101D1000CCE70120FFF73EFBBB4ABC4B1A60CCE787
:101D2000BB4B01221A8300229A811A61B94B1C60B5
:101D30000023B84A11689C00B74820580860013356
:101D4000DBB2116804311160132BF2D9B34B5A4640
:101D50009A80A34B52461A60002309E0990081AA99
:101D600088581A00C03292009D4950500133DBB2AE
:101D7000072BF3D9AA4B4A461A60AA4B029A1A6259
:101D80008023DB05039A1A60049A5A60059A9A60C8
:101D9000069ADA60099A9A61089A5A61079A1A6152
:101DA00042469A62DA610A9ADA620B9A1A630C9ACC
:101DB0005A636A46928E1A870E9A5A649A4B0F9A01
:101DC000DA606A464021521812781A776A4604315E
:101DD000521812889A8428226946482009180978DE
:101DE0009954043269460430091809789954149AB0
:101DF0001A633422694608300918097899546A46EA
:101E00005821521812881A87482269460830091842
:101E100009789954083269460430091809789954A8
:101E20000432694604300918097899540432694625
:101E300004300918097899540432694604300918A5
:101E4000097899540432694604300918097899547C
:101E5000764B1D9A1A601E9A5A606A467C21521867
:101E600012781A746A460431521812781A752422AC
:101E7000694614300918097899546A46882152181D
:101E800012881A85239ADA626A4608315218128833
:101E90001A86002125E00B05654A944663448A00B2
:101EA0007FA8105818607DA8105858607BA8805AE9
:101EB000988379A8805A188477A8805A988475A83E
:101EC000805A188573A81058D86271A8845A4C207B
:101ED0001C526FA8105818656DA812589A650131E8
:101EE000C9B20129D7D9B0231B06259A1A60444BE1
:101EF000409A5A6000229A603F9A1A604D4B269A87
:101F00005A60279A9A606A46A021521812881A824B
:101F10006A460431521812889A822A9A9A616A464D
:101F20000831521812781A772D9A5A632E9A9A63AA
:101F30002F9ADA63309A1A64319A5A64329A9A6400
:101F40006A460431521812881A863B4A6B461C3185
:101F50005B181B8893806B4604315B181B881381C8
:101F60006B4604315B181B7813746B4604315B18A5
:101F70001B7813759839379B8B4313836B46E0208E
:101F80001B181B7813772D4A6B4604301B181B88CF
:101F900093806B4604301B181B8813816B460430FA
:101FA0001B181B7813746B4604301B181B781375B1
:101FB0003D9B8B4313836B46B8315B181B781377BB
:101FC0001F4B419A1A606A461031521812781A72E1
:101FD000C022120101999950002247E00C00002014
:101FE00000E100E0F403002000ED00E0E403002045
:101FF00010000048FFFF0F00FFFFFFCFF00300209D
:1020000010E000E00400F0FFCCBCECFC1400002069
:1020100000001048F8030020FC03002000001040DE
:1020200020ED00E000009040000030400000404003
:102030000000A0400000F0400000D0400000E04060
:102040000000704091008818830052488446634421
:102050005DA80858586065A80858186055A8085821
:1020600098604DA80958D9600132D2B2072AE9D93F
:102070008123DB05439A5A606A4688214900521839
:1020800012781A736A460431521812885A836A46C3
:102090000431521812881A83479A5A62489A9A62EF
:1020A0006A460C31521812881A80C0231B064A9ABD
:1020B0009A60394B1B7A002B3AD1384B1B899BB263
:1020C000082B35D9354B1B899BB2812B30D84B9BC4
:1020D000002B2DD0314B1B8909221340092B1DD019
:1020E0002E4B1B8911221340112B34D02B4B1B89F3
:1020F00021221340212B34D0284B1B89412213402D
:10210000412B34D0254B1B8981221340812B0FD1C9
:102110008023DB05DB699B040AD504E08023DB0513
:10212000DB699B05DCD5012180235B001C4AD15073
:10213000032F22D01B4B6A4612781A72032F23D02A
:1021400000210020FFF7FEF9009BDB0700D440E5EB
:10215000FFF79CFB3DE58023DB05DB695B05E2D4F3
:10216000C4E78023DB05DB691B05DCD4C4E78023DF
:10217000DB05DB69DB04D6D4C4E79022D2055368C3
:1021800009490B405360D5E701210020FFF7DAF938
:10219000DAE7C046080000A00000904000001048A8
:1021A00000E100E000002040FFFFFFCFF0B5C64691
:1021B00000B507000C001500EFF3108872B600227E
:1021C0001A4B1A7013F0BAFE0600380000F088FFB0
:1021D0003B1C874200D9031C301CF6B2DAB296428F
:1021E00000D9181CC0B2124A81008B5801338B50A1
:1021F00000280AD001280ED00E4B1D701C71210042
:10220000FFF774FB88F3108801E088F31088002042
:1022100004BC9046F0BD084B1A7AD2B20021197264
:1022200030BF1A7288F31088F1E7C0460C00002016
:1022300034030020000020400000704000B583B04F
:1022400000236A465371062269460A71043A0092D5
:102250008B716846FEF7F4FA03B000BD10B502209A
:10226000FEF7B0FB10BD10B50220FEF7BBFB10BDA2
:1022700000B583B000236A465371062269460A718D
:102280001A3200928B716846FEF7DAFA03B000BD8D
:1022900010B52020FEF796FB322000F029F8202010
:1022A000FEF7A0FB10BD0000074A084B536008482A
:1022B000036A1B021B0AC02109060B4303620023A9
:1022C000936007331360704710E000E0FE7C00006D
:1022D00000ED00E0024A1368013313607047C04606
:1022E00044030020014B18687047C0464403002097
:1022F00070B50400FFF7F6FF05000134FFF7F2FFA9
:10230000401B8442FAD870BD00B583B000280CD1C0
:102310003023009301236A46137100235371937194
:102320006846FEF78DFA03B000BD90231B010093B1
:10233000F0E700B583B001A804230370013B4370AC
:10234000023B8370FEF706FF03B000BD30B58DB0D1
:1023500001A8FEF75BF900240B9408940694154B32
:1023600001930794059480239B010A93012504950A
:1023700003942023099301A90F48FEF787F8012150
:102380000120FEF7BFFE10230393099470330693D8
:1023900001A90A48FEF77AF801210220FEF7B2FEF1
:1023A00017236A461370957055706846FEF7D2FE83
:1023B0000DB030BD00003040080000A01C0000A09F
:1023C00030B585B0041E27D06368234A9446634421
:1023D000224A934225D8237A022B27D82078FFF768
:1023E00093FF01AD2800FEF79DFD63680193012373
:1023F000AB722800FEF78AFC0020FEF751FE002099
:10240000FEF766FE237A012B15D0022B1CD001208B
:10241000FEF762FC05B030BD1B21114800F062FEE2
:10242000D2E71C210E4800F05DFED4E71D210C48C8
:1024300000F058FED2E72000FFF77BFF0023637215
:102440000120FEF749FCE5E70120FEF745FC2000EE
:10245000FFF77CFFDEE7C04640EDFFFF40FD0D00CB
:102460007070051070B504001E00416192B20283C5
:10247000FFF738FF050004E0FFF734FF401BB042D0
:1024800015D8238B9BB2002B0FD08020FEF79AFD2E
:102490000128F1D163695A1C62611878FEF774FD56
:1024A000238B013B9BB22383E6E7002070BD042011
:1024B0004042FBE710B5437A002B0BD10233437245
:1024C000C16092B202820121FA20C000FEF738FDFD
:1024D000002010BD02204042FBE7000010B5C160A3
:1024E00092B20282038A9BB2074C6360C368E360C6
:1024F00001212000FEF798F801220A212000FEF7B2
:10250000D9F8002010BDC046080000A070B5040036
:10251000437A022B1AD1C568FEF74CFD2870238A36
:10252000013B9BB22382002B01D0002070BD102004
:10253000FEF7A0FD002363720021FA20C000FEF721
:10254000FFFC200000F0CFFD0020EFE7022040421A
:10255000ECE710B504000120FEF70EF9200000F0B2
:10256000C2FD002010BD704710B50400437A012B56
:102570001CD143695A1C42611878FEF705FD238B74
:10258000013B9BB22383002B01D0002010BD2020F3
:10259000FEF770FD002363720021BF204001FEF7AB
:1025A000CFFC2000FFF7DFFF0020EFE702204042D2
:1025B000ECE7000070B505001020FEF7DDF8074CD1
:1025C00000212000FEF730F800220A212000FEF74B
:1025D00071F82800FFF7C7FF002070BD1C0000A0A5
:1025E00070B50500F820C000FEF72AFD041E0BD0D0
:1025F000AC72E30532D48820FEF7AAF8012832D065
:10260000280000F080FD70BD8820FEF7A1F80028AA
:10261000EED12B7A012B08D00220FEF799F8002882
:1026200018D02800FFF795FFEDE71030FEF708FD02
:10263000002807D181204001FEF702FD002805D1C6
:10264000C046E0E72800FFF761FFDCE72800FFF75E
:102650008BFFD8E72800FFF7ADFFD4E780204000CC
:10266000FEF708FDC7E71023AB72C9E770B5022576
:102670000024002305E0465D9B19DBB2E418E4B2B8
:1026800001358E1EB542F6DB1370547070BD70B507
:1026900082B004000D00B5230370533B437001AEBC
:1026A000002333803200FFF7E1FFAB1E3278E254A3
:1026B0006B1E7278E254A9B2C822200000F0A0F983
:1026C000002802D1002002B070BD01204042FAE78C
:1026D000F0B585B00500022100F08EF9002857D131
:1026E0002B78B52B4FD16B78622B4CD10023029302
:1026F0000393322102A800F03FFD02A800F04BFD39
:10270000002809D100F08AF90328F6DDA81C03216E
:1027100000F072F9002833D12C792402EB781C43A5
:10272000E61D02A800F030FD02A800F034FD0028EC
:102730000BD100F073F9A31C9842F5DB711F89B22D
:10274000681D00F059F900281AD101AF3A00310094
:102750002800FFF78BFF3A78AB19023B1B789A42AF
:1027600004D001246442200005B0F0BD01AB5A78CA
:10277000AD19013D2B789A42F5D001246442F2E76D
:1027800001246442EFE700F04FF901246442EAE7D4
:1027900001246442E7E710B582B00400082200215A
:1027A000684600F016FE01236A469370D370547198
:1027B00008216846FFF76BFF002801D102B010BD69
:1027C00001204042FAE710B582B00400082200213F
:1027D000684600F0FEFD02236A469370013BD37009
:1027E000547108216846FFF752FF002801D102B05A
:1027F00010BD01204042FAE700B583B00822002155
:10280000684600F0E6FD06236A469370053BD370E8
:10281000537108216846FFF73AFF002801D103B041
:1028200000BD01204042FAE700B583B00822002134
:10283000684600F0CEFD07236A469370063BD370CE
:10284000537108216846FFF722FF002801D103B029
:1028500000BD01204042FAE700B583B00822002104
:10286000684600F0B6FD0A236A469370093BD370B0
:10287000537108216846FFF70AFF002801D103B011
:1028800000BD01204042FAE700B583B008220021D4
:10289000684600F09EFD0B236A4693700A3BD37096
:1028A000537108216846FFF7F2FE002801D103B0FA
:1028B00000BD01204042FAE700B583B008220021A4
:1028C000684600F086FD0C236A4693700B3BD3707C
:1028D000537108216846FFF7DAFE002801D103B0E2
:1028E00000BD01204042FAE781B5FFB0802292008E
:1028F0000021684600F06DFD6846FFF7E9FE431CC5
:102900000ED06B469B78033BDAB2062A08D89300B8
:102910000F4AD3589F4601006B46581D00F092FAAB
:10292000012040427FB082BD6B46587900F064FAC6
:10293000F6E7C1B26B46581D00F04EFAF0E76B4661
:10294000587900F09FFAEBE700F0A6FAE8E7C046F6
:102950008870051070B506000D000C4800F05AFC98
:10296000041E0FD1094B9B68AB4207DA012040429D
:1029700007E03119054800F09BFC0134AC42F8DB5C
:10298000002070BD01204042FBE7C0464C050020FE
:1029900000B583B06B46D871064800F035FC0028BE
:1029A00001D003B000BD6B46D91D024800F036FCD3
:1029B000F7E7C0464C05002010B5E121490201208F
:1029C00000F0A2FB0023802252000849084800F0D2
:1029D000F1FB01220749012000F0B0FB002801DBD8
:1029E000002010BD01204042FBE7C0464C040020FF
:1029F0004C0500204803002010B5FFF7ABFF10BDC9
:102A000010B513000A000100012000F08BFB002824
:102A100000D110BD01204042FBE70000014B986847
:102A20007047C0464C05002010B5024800F08AFCF3
:102A300010BDC0464C050020BFF34F8F024A034B28
:102A4000DA60BFF34F8FFEE70400FA0500ED00E007
:102A500010B5FFF7F1FF10B5FFF7EEFF10B5FFF768
:102A6000EBFF10B5FFF736FC10BD10B504F0E6FF24
:102A700010BD000010B50248FFF7B2FD10BDC04602
:102A80007405002010B50248FFF7AAFD10BDC0462E
:102A90007405002010B50120FFF795FE10BD000061
:102AA00010B5FFF7CBFBFFF7E3FBFFF7DCFBFFF70E
:102AB00083FF01E0FFF718FF0B4B1B78002BF9D1C8
:102AC0000A4800F06FFA002800D0FEE708490948DC
:102AD00000F052FB084B1A68084B1A600821832348
:102AE000074AD15410BDC04618060020E405002056
:102AF000204E000064050020140600205003002032
:102B00005403002030B585B0FFF7EEFE8323654AFD
:102B1000D35CDBB20B2B0FD89B00634AD3589F4684
:102B20000120FFF738FE614800F02EFB72B603214A
:102B300083235C4AD15462B65C4800F02CFB002829
:102B400005D08323574AD35C032B00D199E005B00D
:102B500030BDFFF79DFBFFF79DFF524B01225A70DE
:102B600072B603218232995462B6E5E7504B1B6876
:102B7000002B1ED14B4B5B78002BDDD0494B1B78D3
:102B8000062B19D072B64B4B188880B24A4B5A8824
:102B90004A4B1988434C631C03930123029300257D
:102BA00001957F3300937F3B00F0D4FC657062B6E3
:102BB000C2E7FFF753FBDDE772B63E4B1D88ADB2AF
:102BC000384C03342000FDF7C9FA3B4B9A883B4B45
:102BD00019880394C0B202900023019380330093BC
:102BE0007F3B280000F0B6FC62B6CBE7FFF71CFE87
:102BF00072B6032183232B4AD15462B69CE7FFF7B8
:102C00002BFE284B01225A7072B60321823299544E
:102C100062B691E7FFF7F0FD224B01225A7072B6BF
:102C200003218232995462B686E7FFF72DFE1D4BD1
:102C300001225A7072B603218232995462B67BE740
:102C4000FFF73AFE174B01225A7072B60321823207
:102C5000995462B670E70020FFF79DFDFFF703FB74
:102C600072B6082183230F4AD15462B664E7144830
:102C700000F0E4F972B6002183230A4AD15462B607
:102C80005AE70B4B1B68002B00D060E7094B1888F4
:102C900080B2052104F006F80A49044800F06CFAF5
:102CA00055E7C04654030020A470051064050020B9
:102CB0004C030020E2030020D8030020E0030020A2
:102CC000E4050020204E0000034B198001218323DE
:102CD000024AD1547047C046E2030020540300204A
:102CE00007218323024AD1540022024B1A60704705
:102CF000540300204C03002000B583B0304B9B8868
:102D00000133994206D02E4B1B880133994226D0BD
:102D100003B000BD2B4B1B78012BF9D12A4B1B684C
:102D2000019304222949049800F029FB002805D1C9
:102D30000123274A1360234A5370E9E7042201A9BB
:102D4000049800F01CFB002805D10123204A1360E1
:102D50001C4A5370DCE702221A4B5A70D8E7049BD6
:102D60001A78184B1A701B78053BDAB2062ACFD8AE
:102D70009300184AD3589F4606218323114AD15401
:102D8000C6E7042183230F4AD154C1E70D4A937843
:102D9000DBB25370BCE7052183230A4AD154B7E75D
:102DA00002218323074AD154B2E70A218323054A2B
:102DB000D154ADE70B218323024AD154A8E7C04682
:102DC000D8030020540300201406002050030020E4
:102DD0004C030020D470051010B5002806D107E080
:102DE00004235B1AC45C034AD45401390029F7D187
:102DF00010BDC0465003002000B587B005220D4B22
:102E00009A70022801D007B000BD17236B441A70D6
:102E1000094A108880B2094A5288094909880393EF
:102E20000123029300230193803300937F3B00F042
:102E300091FBE8E754030020E2030020D8030020C0
:102E4000E003002010B503787B2B0AD00A000100B4
:102E5000094800F0A3FA0022084B1A70FFF7FEF9A8
:102E600010BD074B01225A7003330A0001001800FD
:102E700000F094FAF4E7C046E405002018060020AC
:102E800054030020012800D070470622014B9A709D
:102E9000FAE7C046540300200722014B9A7070479E
:102EA0005403002070B59EB012A93B4B0A001800D5
:102EB00070C870C20068106006A80200103331CBE1
:102EC00031C231CB31C231CB31C231CB31C2102210
:102ED0001AA8FEF7CEFC314B00930A2301221AA94F
:102EE000022000F018FB002802D047201EB070BD61
:102EF000102206A916A8FEF7BCFC284B1888284B00
:102F0000059300230493102203920F3A0292019337
:102F100018330093683316AA022100F0DDFA002866
:102F200001D04720E2E710220AA916A8FEF7A1FC6B
:102F30001A4B18881A4B023305930023049310226E
:102F400003920F3A02920193123300936E3316AA42
:102F5000022100F0C1FA002801D04720C6E7102264
:102F60000EA916A8FEF785FC0C4B18880C4B0433F1
:102F7000059300230493102203920F3A02920193C7
:102F80001A330093663316AA022100F0A5FA00282E
:102F9000ACD04720AAE7C046A46E0510E00300208D
:102FA000D803002010B58AB0059008AA224B19005A
:102FB00040311B6C08938B8893800621002000F021
:102FC000DEFA0721012000F0D6FA00F0BFFA00284F
:102FD00002D068200AB010BD05A8FDF7BFF8C2B244
:102FE0001A236B44019307AB00931E236B4400210B
:102FF000012000F025FA002801D06C20EAE705AC9A
:103000002000FDF7ABF807AB1A881E236B44198824
:103010000394C3B202930023019380B20090002076
:1030200000F098FA002801D06E20D3E7FFF73AFFAE
:103030000028CFD07020CDE7A46E051030B58FB03A
:10304000050009AC14220021200000F0C2F9092378
:1030500023702800FDF782F802002900252068442B
:1030600000F09CF90021002003F0ACFE0023069341
:103070000593049303930294142201920093013365
:103080001C322021002000F0F3F90FB030BD000009
:1030900010B500230F4A934201DC0133FAE7FEF733
:1030A00013FB01210C48FDF791FDFFF7FDF80B48DC
:1030B00000F0AEFA002800D0FEE7FFF7F1FCFFF7C2
:1030C00021FD00F061FA002200210020FFF76EF8D8
:1030D000F5E7C0463F0D030009000100F070051040
:1030E00003207047FEE710B50400C3681878FFF7A7
:1030F0004FFC237A012B00D010BD0122E168200093
:10310000FFF7D8F9F8E7704710B5054801230370B9
:10311000E1235B02436002230372FFF751F910BD04
:103120007405002010B50448FFF79CF9002800D171
:1031300010BD01204042FBE77405002010B50D4B87
:103140001B7A012B07D0022B0DD10A48FFF7C6F9D5
:1031500000280BD110BD0748FFF7ACF90028F9D0C3
:1031600001204042F6E701204042F3E701204042BF
:10317000F0E7C0467405002010B5041E03D041607E
:10318000FFF7B0F8206010BD10B5041E02D0FFF7A5
:10319000A9F8206010BD10B5041E09D0FFF7A2F8F1
:1031A0002368C31A0133606898428041404210BDD1
:1031B0000020FCE700280FD000290DD0012B11D0F2
:1031C000002B0AD0022B13D0032B17D000238360CF
:1031D00003600369013B4360704702614161002362
:1031E0004373F3E792080261416101234373EDE702
:1031F00092080261416102234373E7E7D20802614A
:10320000416103234373E1E783680069181A43426D
:1032100058417047806843425841704770B5040078
:103220000E0000283ED000293ED0FFF7EDFF051E1E
:103230003CD1606801302169FDF71EF86160637B55
:10324000002B08D1636832786169CA54A3680133DE
:10325000A360280070BD637B012B0FD0637B022B22
:1032600016D0637B032BF1D16068C00063699C4674
:1032700060440822310000F091F8E7E760688000C0
:1032800063699C4660440422310000F087F8DDE762
:103290006068800063699C4660440422310000F04D
:1032A0007DF8D3E70025D4E70025D2E70125D0E754
:1032B00070B504000E0000283ED000293ED0FFF774
:1032C000A9FF051E3CD1637B002B0ED123686269E8
:1032D000D35C3370206801302169FCF7CDFF216099
:1032E000A368013BA360280070BD637B012B0FD056
:1032F000637B022B16D0637B032BEBD12168C900C3
:1033000063699C4661440822300000F047F8E1E719
:103310002168890063699C4661440422300000F002
:103320003DF8D7E72168890063699C46614404221F
:10333000300000F033F8CDE70025D4E70025D2E7D0
:103340000125D0E7002805D00023836003600369CE
:10335000013B4360704710B5002200F009F810BD32
:1033600010B500F01BF810BD10B500F020F810BD2E
:10337000130010B50A00190000F02BF810BD30B58D
:103380000024A24201D1002005E0035D651C0C5D14
:10339000A34201D0181B30BD2C00F2E7002310B56A
:1033A0009A4200D110BDCC5CC4540133F8E710B58B
:1033B000884202D98B18984208D300239A4207D03A
:1033C000CC5CC4540133F9E78B5C8354013AFBD2E3
:1033D00010BD03008218934200D170471970013369
:1033E000F9E70000F0B5054600200F46079E059C52
:1033F000174309D0202905D30127BF03BA4201D8BA
:10340000914201D94220F0BD194621430AD09C4285
:10341000F8D309498C4203D00849A41F8C42F1D249
:10342000062BEFD3002D03D0022D01D0032DE9D1BF
:10343000032EE7D8F0BD0000FFFF00007B0C00006A
:103440007CB5069D079C002805D0860705D1460758
:1034500003D4060701D442207CBD002903D00129F2
:1034600001D00229F7D10095019400F0E3FA7CBD68
:10347000FFB587B0109D159E169C01930295009490
:1034800007A807C81F463346FFF7ACFF00280ED138
:103490001398149903AA069443C2119812990190A3
:1034A0000095029107A807C83B4600F053FC0BB0FB
:1034B000F0BD70B51C4613460D46012C03D0022CFE
:1034C00003D0422070BD022200E010221946FEF710
:1034D000D0F92C70002070BDF0B587B01C460B46AB
:1034E000054600A9023101A80C9F0D9EFFF7E1FFE0
:1034F00000280ED16846058084828775C6750E99AE
:1035000001760F994176109981766946119801F0FC
:1035100083FC07B0F0BD70B586B014461D460A4660
:1035200003466946881C0A9EFFF7C3FF002804D1A2
:10353000012C04D0022C02D0422006B070BD2346DC
:103540002A466946304601F0ADFEF6E710B502F0B6
:103550002FF910BDF0B585B084460AA8F0C86846BA
:103560008581C68103A8019002970094604602F00D
:10357000F7FB05B0F0BD10B503F022F910BD10B592
:1035800003F040F910BD000010B503F029FD1E4CFA
:103590004721206849014118097B002909D1A03041
:1035A0000079C00729D003F045FB03F049FA0FF07A
:1035B0006FFE00F003F92068014640310A78C979AE
:1035C0008A4319D13E21095C002915D10F490A8887
:1035D000120711D50922D2061269497A836AC900F5
:1035E000591809231B02C018806D801A00020012AE
:1035F000814201DA0BF088FD10BD00F08BFB01F079
:1036000071FF0CF04DFDD0E7DC050020C00000206C
:1036100010B5837F0122002492024168082B03D950
:103620004224914202D310E0914201D242240CE0A4
:10363000014634220648FEF71CF900F07FF8002806
:1036400001DA482401E000F029F9204610BD00000D
:10365000DC0200203EB5174D15482968827F0846D8
:10366000A0310A7300246030047644768476E12227
:10367000C2768022027702224277302008704C7096
:1036800002AA01A96846FEF7E3F868460078A2227C
:1036900001016846007A891C0002014368460079EE
:1036A0000003014328681152A03004713EBD0000A0
:1036B000DC020020DC05002070B503F075FC0BF087
:1036C00011F809F02FFE10F001FC03F043FE184C36
:1036D00018492068184D4018811001202A68C0023E
:1036E0001018C166616889080167A1688908416787
:1036F0000EF0B2FB1D2029688001228B081802877A
:10370000628B4287A28B4286628C82862046203062
:1037100002783B204001081882750021017000F0FA
:1037200087FA03F09BF903F023F90FF037FE70BD21
:10373000DC0200200000FCEFDC05002070B5002555
:10374000ED43FCF752FE01282ED000231849032236
:10375000888BFF24401E10438A7F4D3462438218B9
:10376000088B282460431218488B302460431218B9
:103770000846203040782C24604310180D4A181851
:1037800084184869A0420DD10B4884420AD90D69BA
:10379000FCF72BFEC1B2284608F070FA08F09EFB39
:1037A000401B251A284670BDFF23B533CEE7000025
:1037B000DC02002039190000580A0000F8B52C4F2F
:1037C0003C68206E5C34401C002814D00025294839
:1037D0000023C07B00283ED00926F6062648002D8F
:1037E0001CD000210A460B464169521C994204D163
:1037F000002902D004E00125E9E7204B9A42F2D3E8
:103800002160006960603069A1680002090E000A49
:1038100009060143A16000F033F81DE03169A26898
:103820000902090A150E08D0018BC90712D0416997
:10383000216000696060E37210E0881A00027D2355
:1038400000121B03984205DD100E00060843A0601D
:1038500000F016F8F8BD6360002DFBD003CC0BF030
:103860007FFBFA200BF06CFB39688862F8BD000022
:10387000DC050020FC020020000010488813000036
:103880000449002008610448012100686030C171CA
:103890007047000000001048DC050020F8B506263F
:1038A000324840250560324800270780A9050920D5
:1038B000C00641602F4A9160016801602E480321D3
:1038C00004694269601E08433946401CFDF7D5FF74
:1038D000FCF78BFDC1B2204608F0D0F908F0FEFAE3
:1038E00008F008FBFCF759FD244917208881244C77
:1038F0002068421901465770FA208862282010700B
:10390000FCF72DFD012805D12068102240300178F8
:1039100011430170FCF77FFD012805D1206880224A
:103920004030017811430170206801464030027830
:10393000324302700020C0430866FDF76DF8FFF7C0
:1039400089FEFFF7B9FE20680121203001770721A9
:103950004177012002F034FF06F0B0F8FFF72EFFA8
:1039600002488038056002210160F8BD80E100E076
:10397000C000002040000048DC0200200000104889
:10398000DC05002038B5184A14682246BA32AE3435
:10399000A378DD0701D001290AD05B070CD50129E6
:1039A0000AD0217949070BD5E17A002905D007E033
:1039B000E07880210843E07038BD0121E172508039
:1039C00020794106090FF7D0782108406946087030
:1039D000002048706A460221422000F04DFB207909
:1039E00087210840207138BDDC05002038B510481B
:1039F000002104680846AE3407F0E8F969464870CB
:103A00002079C10704D001216A46117088432071D2
:103A1000C0B2810705D502216A461170FD21084018
:103A2000207102216A46084600F026FB38BD0000DE
:103A3000DC050020FFB50C4678A103C995B00191C3
:103A40000090002108A801730321C902684641863D
:103A5000012108A8734E017435681746AE3512F07F
:103A6000F3FA002808D170493068401809F09AFF2D
:103A7000A878002802D0462019B0F0BD0BA81599EF
:103A8000FCF783FC0028F7D1072010A90871012C4E
:103A900005D0022C0AD0002C0ED04220ECE708A85A
:103AA000017B1020014308A8017305E011A90BA8B0
:103AB000FCF74DFC0028DFD110A8027901230CA9E6
:103AC000284601F0EFFB00287ED1022229461898F3
:103AD000FDF7CFFE298868468181152149020182C0
:103AE0000784012686734E2108A881700024C470C3
:103AF000067107214171867103A902A801F08CF9B2
:103B0000002861D1022202A91E98FDF7B2FE082FFB
:103B100002D26846478502E0082069464885694622
:103B20000C850B4628880AAA098902F0E5F80028C6
:103B30006DD13E49684601820227078408A8847136
:103B400003A902A801F068F9002860D1022202A9A5
:103B50001F98FDF78EFE68460470694644704F85D5
:103B60000B4628880AAA098902F0C6F800284ED117
:103B700008A8007BC00723D02C496846C91C0182D5
:103B80000821018408A88770047103A902A801F024
:103B900043F900283BD1FF216846C1718171C17092
:103BA0008170417001704471047169460820488534
:103BB0000B4628880AAA098902F09EF8002826D117
:103BC00008A8007B800600E021E022D5298868460D
:103BD00081811649A53101820684867308A8877001
:103BE000C470047107214171847103A902A801F016
:103BF00013F900280BD169460E700C854E850B46D3
:103C000028880AAA098902F077F8002801D04720FD
:103C100032E708A8007BA87000202DE7626C75656C
:103C20006E726721DC050020DE060000012A00001C
:103C3000034800210068AE30C170817070470000F9
:103C4000DC05002070B50D4B1C68AE342379DD0611
:103C500012D45B0710D533280ED1E07A02280BD19D
:103C60000420107000205070C9B2022000F004FA45
:103C70002079FB210840207170BD0000DC05002088
:103C800038B50246174801240068AE30022A1FD01A
:103C9000052A03D0072A07D00B2A20D10846097924
:103CA0004088FFF76FFE1AE000790024020600D575
:103CB0000124820703D1C20601D480060FD508462D
:103CC00000216A461170694600F0C2F8044606E019
:103CD0008178490703D50179FB2211400171204603
:103CE00038BD0000DC05002010B509480468AE347A
:103CF000E07880070BD500200AF06EFB022000F070
:103D000093F9E07801210843FD210840E07010BDDF
:103D1000DC0500201FB50E480468AE34E0780106CB
:103D200012D5A178C9070CD0800708D504206946B0
:103D30000873684603F030FA022000F075F900209D
:103D4000E0704006400EE070FCF723FB1FBD000052
:103D5000DC050020F0B58DB00C4616A9E0C90021A5
:103D6000089109910A910B911599049105A9E0C157
:103D700012A962C900930191134601460396029568
:103D80002246012000F096F80DB0F0BD0949B2229C
:103D900009681423525CBA311A4208D049880005D8
:103DA0000905090D000D814201D101207047002055
:103DB00070470000DC05002002780907090F0A435C
:103DC000027000207047000030B50E4885B00568CD
:103DD0002C46AE352879BA34400711D5E87A012847
:103DE0000ED1152149026846418001210170608889
:103DF0006B46054A00F09EFA002801D10220E872C5
:103E000005B030BDDC050020FFFF00007CB5044696
:103E1000E1200D46800005F06FFC0BA103C9009066
:103E20000191684602F0AEFF01200BF069F900280D
:103E300001D047207CBD2078202108432070092034
:103E4000287000207CBD00001F0200000000000060
:103E500030B5174B047A1B68C268AE331B799D06D8
:103E6000AD0F04D10078042801D000200BE0012020
:103E700030BD401CC0B2155C012D08D01518203D86
:103E8000ED7F2818C0B2A042F3D3087830BD401CA3
:103E9000DD070124C0B2002D02D0105CC00703E092
:103EA0009B07F2D5105C80070028EED00C70ECE781
:103EB000DC050020FFB595B00E46054620210CA874
:103EC000FFF749FA00200490564800270468681E4E
:103ED000AE34042802D8A078C0070BD0062D02D03B
:103EE000002D0AD002E0A078800703D5E0784006D4
:103EF000800E0AD0462019B0F0BDA0788007F9D016
:103F0000E0784006800EF5D00FE0002D0DD0012D99
:103F100020D0022D28D0062D33D0032D33D0042DF0
:103F200037D0002E3BD04220E5E700200AF054FABB
:103F30000028E0D1E078800708D50420694608739E
:103F4000684603F029F9022000F06EF80120E070C5
:103F50000020D0E7012EE6D0042EE4D01F980028E0
:103F6000E1D10627042008E0012EDCD0042EDAD0AF
:103F70001F980028D7D105270220E0700120049067
:103F800010E040200DE0022E01D0032ECBD10820FE
:103F900007E0012E01D0042EC5D1102001E0042736
:103FA0002020E07000230BAA19461E9809F05CFB44
:103FB000030002D000F0E0F832E01022002107A850
:103FC000FDF75BFC07A86C46279B269A1F990FC438
:103FD0002B463046189A179900F088F80300E9D16B
:103FE00008A8017BC170259803AC049B289A2999E5
:103FF0000FC422AB07CB02920091019039460CA866
:10400000209B219A00F0C2F80300D3D107A80AF040
:10401000F7FC0300CED101200AF0DEF90300C9D17C
:10402000184668E7DC05002010B50446C1061148B3
:10403000006803D51522BF210C4006E01B21890131
:104040004118497EC90710D012222107890E08188D
:104050001121C9014018C06F002321460FF0EAF971
:10406000010004D020460FF0D1F9002010BD072038
:1040700010BD0000DC050020F8B5891ECDB2064653
:10408000A81C03210843401C8308174817460068F2
:10409000F10603D51C22BF210E4008E01B21890137
:1040A0004118497E090601D40020F8BD19223107C4
:1040B000890E08181121C9014018C06F31460FF050
:1040C000B9F904000ED03978217179786171A57140
:1040D0002A46B91CE01DFDF7CCFB214630460FF007
:1040E00095F9E1E70720F8BDDC050020F8B5204B85
:1040F000204D1B6801265B19069CB603009300281F
:1041000014D0042812D0022813D0032811D0062579
:104110002B46012810D00F4617430DD0914203D8EB
:10412000202901D3B2420AD94220F8BD30256023AC
:10413000EFE7A025F023ECE72580638001E02180F4
:10414000628020710798A071089820720998002851
:1041500005D00146204606220930FDF78AFB0720DC
:10416000607100982030807B60710020F8BD0000F5
:10417000DC05002008090000034881220068A03007
:10418000417C114041747047DC050020F8B50546BC
:104190003D481E460068079F0024AE3013460029A4
:1041A00005D002222A7001226A70A9700324002E11
:1041B00010D080788006800F0CD13019401C1F2849
:1041C00052D82E55641C281932461946FDF751FB6A
:1041D000A019C4B2002F0DD03819401C1F2843D895
:1041E0002F55641CE4B228193A460699FDF741FBA5
:1041F000E019C4B26846008C00281BD06846808C49
:10420000002817D0601D1F282ED805202855641CB3
:10421000E0B212212954401CC4B2281906460222D9
:1042200008A9FDF726FBB01C022209A9FDF721FB16
:10423000241DE4B20C98002810D0E01C1F2813D8CD
:1042400002202855641CE0B20A212954401CC0B247
:104250002918401CC4B208460AF038FE0B98002802
:104260000CD000191F2801D94220F8BD28190B9A3B
:104270000A99FDF7FEFA0B982018C4B22146284689
:104280000AF01AFBF8BD0000DC05002000B500F0C4
:1042900009F8002805D0852201699201114200D059
:1042A000002000BD10B50D4900050B68052149022D
:1042B00059188A690021000DA0331B7B0AE04C01CC
:1042C000145B2405240D844202D14801801810BDDE
:1042D000491CC9B28B42F2D8002010BDDC05002079
:1042E000FEB58C68CD88267B012E01D00020FEBD56
:1042F0004126052D01D01E7019E0247C0A2C00D027
:104300001E70002A0DD08968052268460C31FDF721
:10431000B0FA6D1E00AAA9B232200132FFF792FC5A
:1043200005E000880A460146022000F0FDF9412020
:10433000FEBD0000FFB589B0074646251E78102255
:10434000991C05A8FFF70CF8012E04D0022E02D00C
:1043500042200DB0F0BD3846FFF798FF040024D08E
:1043600020223946002008F0BBFF07001CD005AD15
:1043700004960FCD6D460FC5394620460B9B0A9A11
:1043800009F037F9050004D00021384609F004F897
:104390000BE0012120694903084320610448A06122
:1043A000384600F059FC00E064252846D1E70000BB
:1043B000B543041010B5502100F001F810BDF0B560
:1043C0008BB00D4604460020694608710490E669EA
:1043D000002E16D0A806800F03D02088FFF7D6FC49
:1043E000049001AB31462046049AFFF779FF41283B
:1043F00065D0E80708D021883246022000F018F97D
:104400005DE041200BB0F0BD680705D5218832463C
:10441000022000F0D3F852E0A80739D5F08861886F
:10442000814205D921883246022000F08DF846E00D
:104430002069410604D5012189020843206180E0FA
:1044400021882022002008F04BFF05001ED0218883
:104450003246022000F078F8A068801C00F0D0F905
:104460006188401E401886B2A06800F0C9F9024673
:1044700033462946204609F098F8284600F0ECFB20
:10448000A0683146801C00F0B7F954E04520B9E738
:10449000E80614D5F088412702280ED9B168801E9D
:1044A0004D7B80B2854201D9012016E0002D04D059
:1044B0002946FBF7E1FE00290FD06846077101206D
:1044C0002169400381432161049800282DD001AA6D
:1044D00001213120FFF7B6FB2DE0029002200027DA
:1044E00003901EE0049800280DD0039805AB001D32
:1044F00081B22A46304608F0B3FE05AA2946332089
:10450000FFF7A0FB07E003980096C2B22B46218874
:10451000022000F0C7F80398401980B27F1CBFB298
:10452000039002988742DDD3C9E768460279218863
:10453000022000F035F90121E06908F02DFF00208C
:10454000E06100205EE70000F7B5064690790321A0
:10455000401EC5B2E81C0843401C83081648174695
:104560000068F10603D52C22BF210E4008E01B2174
:1045700089014118C97E090601D40020FEBD292207
:104580003107890E08181121C9014018C06F314642
:104590000EF050FF04000DD00198A080A5712A46AE
:1045A00005213846E31D08F05BFE214630460EF03B
:1045B0002DFFE2E70720FEBDDC050020F7B506462B
:1045C00090790321401EC5B2E81C0843401C8308B3
:1045D000164817460068F10603D52D22BF210E406C
:1045E00006E01B2189014118097FC90719D02A2239
:1045F0003107890E08181121C9014018C06F3146D2
:104600000EF018FF04000ED00198A080A5712A4674
:1046100005213846E31D08F023FE214630460EF002
:10462000F5FE0020FEBD0720FEBD0000DC050020D9
:10463000F7B5064690790321401EC5B2E81C084331
:10464000401C8308164817460068F10603D52B2244
:10465000BF210E4008E01B2189014118C97E49068F
:1046600001D40020FEBD28223107890E081811212F
:10467000C9014018C06F31460EF0DCFE04000DD0B9
:104680000198A080A5712A4605213846E31D08F04F
:10469000E7FD214630460EF0B9FEE2E70720FEBDF9
:1046A000DC050020FFB59B1E0646DDB2681D032118
:1046B0000843401C83081B4881B000681746F10678
:1046C00003D53622BF210E4009E01B218901411884
:1046D000497F890702D4002005B0F0BD332231079D
:1046E000890E08181121C9014018C06F31460EF01B
:1046F000A1FE040014D00298A0800A982346806886
:104700002A460830C0190079E0802572B91D0933A6
:104710000A9808F0A5FD214630460EF077FEDAE74C
:104720000720D9E7DC050020F8B5044690680F465D
:1047300001461546467B0E3102226846FDF799F880
:10474000A8680223057C1548E10603D53522BF2160
:104750000C4009E01B22016892018918097F0906B3
:1047600001D40020F8BD322221070068890E081804
:104770001121C9014018C06F21460EF05BFE0100F7
:1047800009D08F808E716A4612880A818D72204608
:104790000EF03CFEE5E70720F8BD0000DC05002038
:1047A00070B50E4601230446C1061248154600683E
:1047B00003D53422BF210C4006E01B21890141189A
:1047C000497FC90711D031222107890E081811210C
:1047D000C9014018C06F21460EF02CFE010006D022
:1047E0008E808D7120460EF011FE002070BD0720D6
:1047F00070BD0000DC0500200170090A417070479F
:1048000001784078000208437047F8B5069C1F46BF
:1048100015460646002C13D0A06802220D30FDF785
:1048200028F8E81E82B23B460721204608F008FE21
:10483000E580A068012E05D01D2101730020F8BD80
:104840004720F8BD1B21F8E7F1B5FFB08BB001247C
:10485000600205900027CC4807970168E320C0005C
:10486000081803908A98C74D0005000D0AAA05A9EB
:104870000BF0E7F80690002872D104260AA80599E3
:104880004218203AD27F0B2A23D000260020049021
:104890000AA88119022201A80291FCF7EAFF6846E2
:1048A000818809AB08AA039801F020FC012817D0E1
:1048B00002287DD068468088854200D30546844220
:1048C00000D92046044602988078012871D013361A
:1048D0003BE1491E761E36040591360CCFD1D5E753
:1048E00008980090002F79D100990222283102986F
:1048F000FCF7C7FF00281ED100982030017B0298EA
:104900008078814217D1012808D1009802990222AB
:104910000830C91CFCF7B5FF002815D00298807834
:10492000022808D10098029910220830C91CFCF70F
:10493000A8FF002808D00098008DA84200D805469E
:10494000A04200D22046044602990AA8897801298B
:1049500007D013360599B6B28E4204D3012707E07B
:1049600005E1761DF6E78119022201A8FCF781FF17
:104970000399009808318E462EE084466946026A03
:104980008B8820300DE0918B994203D3012F7DD18C
:1049900099427BD9A94200D80D46A14200D30C46CA
:1049A00012688242EFD10498002817D1604601E0D6
:1049B00015E0BFE0006870450ED0018D994203D329
:1049C000012F09D1994207D98D4200D30D468C425F
:1049D00000D80C46012F59D17045CED1BAE00898C5
:1049E0000090002F72D1009902221C310298FCF72E
:1049F00048FF00281ED100982030C17802988078A6
:104A0000814217D1012808D100980299022208306A
:104A1000C91CFCF736FF00281AD0029880780228BB
:104A200008D10098029910220830C91CFCF729FF10
:104A300000280DD00098808BA84200D80546A042DF
:104A400000D22046044602988078012826D003E050
:104A500002988078012805D013360798B6B201284D
:104A60001ED021E0009849490089884216D18A98D1
:104A7000FFF718FC0146009800F08AF80099098CAD
:104A80004843009989694018022200E038E0029901
:104A9000491DFCF7EEFE01200790D4E7761DDCE708
:104AA000B61C0020B6B207900598864201D30127B4
:104AB00005E00AA88119022201A8FCF7DAFE039A90
:104AC0000099083209980968944630E01AE0864651
:104AD0006A46938820300DE08A8B9A4203D3012FD7
:104AE0000ED19A420CD9AA4200D81546A24200D350
:104AF000144609688142EFD1049800282AD102E0C7
:104B00000120049026E07046006860450FD0028DB9
:104B1000016A9A4203D3012F09D19A4207D99542DB
:104B200000D31546944200D81446012FE8D16045C1
:104B3000CDD10FE00298C078022805D10298007903
:104B4000292801D1B61CB6B2761D0598B6B28642A8
:104B500000D301270598811B042902D3864200D285
:104B600094E604980028FBD1A54203D906987FB0AB
:104B70000CB0F0BD224629468A9801F0FBFA069057
:104B8000F5E70000FFFF0000DC050020022900001F
:104B900030B5024623239B5C0020012B1AD11289D9
:104BA0000D4B9A4216D10D4A052312685B02D318A9
:104BB000A0329B69127B0AE045010C885D5B2405ED
:104BC0002D05240D2D0DAC4204D0401CC0B28242F4
:104BD000F2D8002030BD000002290000DC050020D2
:104BE000830810B50A480021026805204002101809
:104BF000A0328069127B07E04C01045B002C01D0DD
:104C0000994204D0491CC9B28A42F5D8002010BD8F
:104C1000DC05002010B50446022000F033F80D48F2
:104C200000210268052040021018A0328369107B21
:104C300005E04A019A5A002A04D0491CC9B28842A8
:104C4000F7D810BD48011C52C018026904210A435C
:104C5000026110BDDC05002010B5044601460420A9
:104C600002F09AFC002809D00548E3210068C90039
:104C7000401821463C300FF043FA432010BD00009D
:104C8000DC05002004490A683B21490151180A78D3
:104C900002430A7070470000DC05002000B511389F
:104CA000C0B2FFF79DFF002804D001220169520520
:104CB0001143016100BD0000F3B597B00D8848882D
:104CC0000590081D1DC80DAE1DC68C8ACE8A087EB3
:104CD0001390C869203101900878009048780490BA
:104CE00088780390C87802900F7900F047FD00287B
:104CF00017D10120400284425FD8B4425DD8002F12
:104D000001D1B44259D114A9284601F01DFA002856
:104D100006D115AA1499059801F006FA002802D0C8
:104D2000602019B0F0BD149D11A92846183008F074
:104D30008DFE10A88088002810D0284612A92030A7
:104D400008F084FE10A8838800892A8D1818696AE3
:104D500010188A8B904203D16120E2E74820E0E7F7
:104D600015982C4B02899A4227D12322125C012AE2
:104D700023D1006800681690139801281FD1684657
:104D8000808E29221202801A030001F0D2FC060450
:104D9000180404070A18022C0FD110E0072C0CD1BC
:104DA0000DE0042C09D3E00707D1012F07D1A6425B
:104DB00003D3042E01D3F00701D04220B1E70298BB
:104DC0000B90039B049A0A9309920098019A0C97FE
:104DD00008900696059407920DA81DC8019002A898
:104DE0001CC013980B4600902A461699179800F09D
:104DF000AFF9002895D168460649808EFF31884278
:104E000005D01798018800200A4601F0B3F9002068
:104E100087E7000003280000F3B5A5B008881A90C2
:104E200088780C4611901022091D13A8FEF798FAF5
:104E3000A08A1090A17D68460172E07D0F90207ECF
:104E40002090677EA07E1F900020064601461290AB
:104E500020A801810F20BB4C2390E3212068C900CA
:104E60004018199000F08AFC00280BD101211098FD
:104E7000490288425FD821A91A9801F065F90028F3
:104E800002D0602027B0F0BD2198179008F082FD75
:104E90001A9988420CD102A801901698009013AD7F
:104EA0000ECD119808F03EFD002801D06320E9E7FF
:104EB0006846017A8806800F05D00120129020688C
:104EC000A030007B4600C80703D01298401CB61CD7
:104ED0001290080603D51298401CB61C1290179821
:104EE0000DA918301D9008F0B1FD6846129C808E07
:104EF000A41CA04237D317980EA92030019008F0C7
:104F0000A5FD6846018F00290DD01798179A6B46AA
:104F1000406A9B8E128D5918808B5118081AA04236
:104F200001D26120AEE7179884691198256801289D
:104F300003D0022803D04220A4E7052000E013207C
:104F4000E0832A4639460F9808F036FD422899D06A
:104F5000199FE28B4037788B398B411A10981018C3
:104F60008019814201DA48208CE70EA9019808F0E7
:104F70006DFD6846008F0028179802D0406A808B2C
:104F800000E0008D2599401C0880259801210088AB
:104F9000A083259802220088401CA8836A482081AB
:104FA000204620301790C1700021817081711998BE
:104FB000398B406D40186946A061097A0170A0697B
:104FC00029461C31401CFCF754FC11980128A069AB
:104FD0007ED0102213A9C01CFCF74BFC28461022DF
:104FE00013A90830FCF745FC388B133038832E4664
:104FF00020361198F0701098E8831F98B0701098C0
:105000002084109828841998398B406D4018A86125
:105010000021109AFCF731FC398B1098081838835E
:10502000179901200871179900204871307168465E
:10503000007A810701D5012131710107022700297A
:1050400002DA317939433171410703D531790422CC
:1050500011433171400603D530790821084330717E
:105060000F9870712098B07121461D9808F017FDB7
:105070002146019808F0F4FC29461D9808F00FFD20
:105080002946019808F0ECFC1298002841D06846A7
:105090001A998181A18BC18107844784012408A8C2
:1050A000047122A80A9008A88473239941730F9968
:1050B0003820014008A801730721C1730025057439
:1050C0006846007AC00708D020486946088200E098
:1050D0002AE003A924A8FFF7EFFD6846007A8006BE
:1050E000800F07D019486946401E088203A924A8EA
:1050F000FFF7E2FD6846007A00060AD52921090279
:105100006846018208A84473057303A924A8FFF721
:10511000D3FD259801881298401C081882B20020FF
:1051200001F028F80020ADE6022213A9C01CFCF70C
:10513000A0FB2846022213A90830FCF79AFB388B03
:10514000401D53E7DC050020032800000329000070
:10515000FFB55248E322006887B0D2008218069259
:1051600010AA109B0126169F9288012B04D14C4B4C
:105170009A4201D1A030067B069D34464035688BAB
:105180002B8B7C43C31A099820300390A34222DA68
:1051900048200BB0F0BD2320405C012819D10889BC
:1051A0006C46208098420CD03D4C641EA04208D032
:1051B000641CA04205D0641CA04202D0A41CA042E2
:1051C00007D1374CFF3CA04201D0904201D1622070
:1051D000DFE7096801E029231B0203988142DAD145
:1051E00009981B9984691898224608F0E5FB422823
:1051F000CFD01C98012804D11598874201D24220B3
:10520000C7E71598E083204620301C9905908170EF
:1052100027840A98808B401CA0831098012814D002
:105220002046102211A90830FCF723FB059910989D
:10523000C8700698298B406D4018A061298B3846AC
:1052400070430818288300250FE011A80FC8083400
:105250000FC4183CEAE72846A16978430818159A54
:105260001799FCF706FB6D1CEDB2B542F3D3059917
:105270001898487105991998087105991A988871B4
:1052800009982146183008F00AFC2146039808F0D6
:10529000E7FB0798A18B018000207AE7DC0500205E
:1052A00002290000FFB58FB014460E78102205A821
:1052B000891CFEF755F85048E3210068C9004518DD
:1052C00000F05CFA00281ED1002C57D0012E09D125
:1052D0006846808A4949884204D12846A96808302E
:1052E00081424BD12846103029690390814209D070
:1052F0000AA9284608F0AAFB6846018D601E0D9099
:10530000814202D2482013B0F0BD284608300CA9D3
:10531000049008F09BFB6846008E002814D0EF68CC
:105320000AA93846183008F091FB384620300CA9FD
:1053300008F08CFB6846398D008D09186846008E90
:10534000401C081887B200E0012701200004C01BA0
:10535000A04201D26120D6E72C69286801901298FA
:10536000012802D0022803D008E00520C00200E096
:1053700023486085012E03D0022E05D04220C2E7CB
:1053800020460830022202E020460830102205A9FB
:10539000FCF76FFA204631462030064601730F981D
:1053A000214607802785039808F079FB2146049859
:1053B00008F056FB27461837E7616662A761266248
:1053C0000D9884B20BE02846019908F068FB384636
:1053D000019908F045FB2868641EA4B20190002CD6
:1053E000F1D10F9801880D98081882B2002000F0C2
:1053F000C1FE002087E70000DC0500200118000046
:105400000128000002460948E3210068C90041184C
:105410008868083103E0038D934202D20068884215
:10542000F9D1884200D1002070470000DC0500203F
:10543000034610B50F48E3210068C9004118886889
:10544000083103E0148D9C4203D8104602688A425A
:10545000F8D18A420CD1018D994209D20146026AE3
:1054600020318A4203D0416A898B994200D20020C0
:1054700010BD0000DC050020024610B50B481205E7
:10548000016805204002081883690020120DA03130
:10549000097B07E044011C5B2405240D944203D0E2
:1054A000401CC0B28142F5D810BD0000DC050020D0
:1054B000F7B50546174601980EF0F2FD2E05044695
:1054C000360D0CE0A0882568B04207D1214601982E
:1054D0000EF033FE3946204607F05EFF2C46002CC6
:1054E000F0D1FEBDF0B58BB0002064490290E320FE
:1054F0000A68C000141872B610464030C5790223FD
:105500001D43C57162B625464035287AC0077DD057
:10551000052040021018002687694AE071017A5A76
:10552000002A44D0C919069109694A021FD48A0287
:1055300027D5022104910699012309880905090D3F
:1055400003911B2189014118C97E89070FD51121BB
:10555000C901083040182322C06F02210DF06AFFF4
:10556000010004D0039A8A8004980DF04FFF06983A
:1055700000880090069800F083F800980CF05DFC1D
:1055800015E0480713D5069800880005000D0CF0BB
:1055900030FC002805D1069800880005000DFFF7B3
:1055A00053F9069904200969814306980161761C24
:1055B000F6B23248AC210068095CB142AED800F0C6
:1055C00001FF2046243006460EF0B0FD012802D02F
:1055D000012000F0F9FD204618300EF0A7FD01284B
:1055E00002D0002000F0F0FD3C3420460EF09EFD7D
:1055F00001280FD002A920460EF0C1FD0420029917
:1056000001F0CAFF0028F0D0204600E034E0029903
:105610000EF063FD287A00062ED530460EF086FD8A
:10562000012829D1002007F037FEA98B2331490931
:10563000491CC9B2FAF720FE00281DD00F4D0446C0
:1056400028681121C9010830401842260123382258
:10565000C06F31460DF0EEFE01000DD000228A80B1
:10566000CC8030460DF0D2FE3B212A68490151180A
:105670000A78802082430A700BB0F0BDDC05002060
:10568000F0B504463C48E3210068C9004518218A6A
:1056900085B089041AD5022104911B218901411882
:1056A000497F412627880123C9070FD01121C9014D
:1056B000083040183122C06F02210DF0BBFE0100FE
:1056C00004D08F808E7104980DF0A0FE29462088AA
:1056D00001221831FFF7ECFE2946208801223031E3
:1056E000FFF7E6FE2946208801222431FFF7E0FE7D
:1056F0002946208800223C31FFF7DAFE2088000589
:10570000000DFFF7B9FE8500294611316846017387
:1057100001F042FD294612316846017301F03CFD5B
:10572000294613316846017301F036FD6846143589
:10573000057301F031FD208800F028FA208801056A
:105740000D48090D0268052040021018828F914211
:1057500001D100218187E069002802D0012107F0F2
:105760001BFE202200212046A568FCF786F81720A2
:10577000A560608005B0F0BDDC05002010B50B48C9
:10578000E3210068C90044184034207AC00709D0DA
:10579000002007F081FD217A890701D5002803D078
:1057A000002010BD472010BD642010BDDC05002086
:1057B000F0B55FA099B000685E491590E3220868D3
:1057C000D20084180522520282189269254640357B
:1057D00014922A7AD20702D0622019B0F0BDAA8BA7
:1057E00001235B029A4201D9AB8303E0172A01D25D
:1057F0001722AA83149AA0301392067B0DE0761E1E
:10580000F6B2139871010F18B8680F90384620222D
:105810000021FCF732F80F98B860002EEFD1204637
:105820000830E0606460A06024600830139060611C
:105830002061FF22002108300EF047FC2046FF22A5
:10584000002124300EF041FC2046AA7F0021303098
:105850000EF03BFC2046FF2200213C300EF035FCD0
:1058600000222A7210461721324B05E0149E470190
:10587000BE19401C7180C0B21E68A036367B8642BD
:10588000F4D8002028832F8C688C0026149008E020
:105890002820E16C70430918204608F0E1F8761CD6
:1058A000B6B2BE42F4D3002608E03020216D70432A
:1058B0000918139808F0D4F8761CB6B214988642EA
:1058C000F3D30120FFF7DEF90124684604701A497A
:1058D00041802346042269460CA8FFF7E3FC002818
:1058E00022D16846018E81821449018304260685EF
:1058F0008475202108A881720024C47204730721D2
:105900004173847305A90DA8FFF786FA00280BD10F
:10591000684604874687818E15AB0EAA008E00F07C
:10592000EBF9002800D158E700202872472054E7FF
:105930000000FFFFDC05002001180000052A000020
:10594000F8B504467D480E460068E321C9004718B3
:105950004820C05DC0077BD0B088FEF7A3FC054699
:10596000012C02D0002C75D0E6E0002D0CD0286967
:1059700041074AD4B268F188147B0029F4D062064A
:105980000CD56888884201D20121B2E0D22C01D026
:10599000522CF9D13846314618303FE0A106890E25
:1059A0001E293ED81E2C21D101071FD5082188436E
:1059B00028612988012008F03BF80121304607F0D2
:1059C000EBFC5E4811210068C901083040184224F0
:1059D0002D8801233922C06F21460DF02BFD0100D7
:1059E00003D08D8020460DF011FDA5E0E1070AD01F
:1059F0001D2C10D01B2C0ED0410529D40121890269
:105A00000843EE6192E0C00601D54520F8BD298823
:105A1000002007F0FBFF3846314624300EF070FBC3
:105A20008AE029882022002007F05AFC05000FD0C8
:105A30000121304607F0B0FC2B460022214606200B
:105A40000EF02EFF2846FFF707F975E000E001E0B1
:105A50004120F8BDB068047B1D2C3AD01B2C41D0EE
:105A60000021304607F098FC032C46D0052C44D08A
:105A7000072C42D0092C40D00B2C3ED00D2C3CD012
:105A80000F2C3AD0112C38D0132C36D0172C34D000
:105A9000192C32D0012C30D0022C35D0042C33D02C
:105AA000062C31D0082C2FD00A2C2DD00C2C2BD02A
:105AB0000E2C29D0102C27D0122C25D0162C23D018
:105AC000182C21D0522C1FD0D22C1DD01E2C2FD000
:105AD00032E0002D03D02988012007F097FF3146DE
